{"contracts/cygnus-oracle/CygnusNebulaOracle.sol":{"CygnusNebulaOracle":{"abi":[{"inputs":[{"internalType":"contract IERC20","name":"denomination","type":"address"},{"internalType":"contract AggregatorV3Interface","name":"denominationPrice","type":"address"}],"stateMutability":"nonpayable","type":"constructor"},{"inputs":[{"internalType":"address","name":"pendingAdmin","type":"address"}],"name":"CygnusNebulaOracle__AdminCantBeZero","type":"error"},{"inputs":[{"internalType":"address","name":"sender","type":"address"}],"name":"CygnusNebulaOracle__MsgSenderNotAdmin","type":"error"},{"inputs":[{"internalType":"address","name":"lpTokenPair","type":"address"}],"name":"CygnusNebulaOracle__NebulaRecordAlreadyInitialized","type":"error"},{"inputs":[{"internalType":"address","name":"lpTokenPair","type":"address"}],"name":"CygnusNebulaOracle__NebulaRecordNotInitialized","type":"error"},{"inputs":[{"internalType":"address","name":"lpTokenPair","type":"address"}],"name":"CygnusNebulaOracle__PairAlreadyInitialized","type":"error"},{"inputs":[{"internalType":"address","name":"lpTokenPair","type":"address"}],"name":"CygnusNebulaOracle__PairNotInitialized","type":"error"},{"inputs":[{"internalType":"address","name":"pendingAdmin","type":"address"}],"name":"CygnusNebulaOracle__PendingAdminAlreadySet","type":"error"},{"inputs":[{"internalType":"address","name":"lpTokenPair","type":"address"}],"name":"CygnusNebulaOracle__PriceCantBeZero","type":"error"},{"inputs":[{"internalType":"uint256","name":"x","type":"uint256"}],"name":"PRBMathUD60x18__Exp2InputTooBig","type":"error"},{"inputs":[{"internalType":"uint256","name":"x","type":"uint256"}],"name":"PRBMathUD60x18__ExpInputTooBig","type":"error"},{"inputs":[{"internalType":"uint256","name":"x","type":"uint256"}],"name":"PRBMathUD60x18__LogInputTooSmall","type":"error"},{"inputs":[{"internalType":"uint256","name":"prod1","type":"uint256"},{"internalType":"uint256","name":"denominator","type":"uint256"}],"name":"PRBMath__MulDivOverflow","type":"error"},{"inputs":[],"name":"ReentrantCall","type":"error"},{"anonymous":false,"inputs":[{"indexed":false,"internalType":"bool","name":"initialized","type":"bool"},{"indexed":false,"internalType":"uint88","name":"oracleId","type":"uint88"},{"indexed":false,"internalType":"address","name":"lpTokenPair","type":"address"},{"indexed":false,"internalType":"contract IERC20[]","name":"poolTokens","type":"address[]"},{"indexed":false,"internalType":"uint256[]","name":"poolTokensDecimals","type":"uint256[]"},{"indexed":false,"internalType":"contract AggregatorV3Interface[]","name":"priceFeeds","type":"address[]"},{"indexed":false,"internalType":"uint256[]","name":"priceFeedsDecimals","type":"uint256[]"}],"name":"InitializeCygnusNebula","type":"event"},{"anonymous":false,"inputs":[{"indexed":false,"internalType":"address","name":"oracleOldAdmin","type":"address"},{"indexed":false,"internalType":"address","name":"oracleNewAdmin","type":"address"}],"name":"NewOracleAdmin","type":"event"},{"anonymous":false,"inputs":[{"indexed":false,"internalType":"address","name":"oracleCurrentAdmin","type":"address"},{"indexed":false,"internalType":"address","name":"oraclePendingAdmin","type":"address"}],"name":"NewOraclePendingAdmin","type":"event"},{"inputs":[],"name":"AGGREGATOR_DECIMALS","outputs":[{"internalType":"uint256","name":"","type":"uint256"}],"stateMutability":"view","type":"function"},{"inputs":[],"name":"SECONDS_PER_YEAR","outputs":[{"internalType":"uint256","name":"","type":"uint256"}],"stateMutability":"view","type":"function"},{"inputs":[],"name":"VAULT","outputs":[{"internalType":"contract IVault","name":"","type":"address"}],"stateMutability":"view","type":"function"},{"inputs":[],"name":"admin","outputs":[{"internalType":"address","name":"","type":"address"}],"stateMutability":"view","type":"function"},{"inputs":[{"internalType":"uint256","name":"","type":"uint256"}],"name":"allNebulas","outputs":[{"internalType":"address","name":"","type":"address"}],"stateMutability":"view","type":"function"},{"inputs":[{"internalType":"address","name":"lpTokenPair","type":"address"}],"name":"assetPricesUsd","outputs":[{"internalType":"uint256[]","name":"","type":"uint256[]"}],"stateMutability":"view","type":"function"},{"inputs":[],"name":"decimals","outputs":[{"internalType":"uint8","name":"","type":"uint8"}],"stateMutability":"view","type":"function"},{"inputs":[],"name":"denominationAggregator","outputs":[{"internalType":"contract AggregatorV3Interface","name":"","type":"address"}],"stateMutability":"view","type":"function"},{"inputs":[],"name":"denominationToken","outputs":[{"internalType":"contract IERC20","name":"","type":"address"}],"stateMutability":"view","type":"function"},{"inputs":[],"name":"denominationTokenPrice","outputs":[{"internalType":"uint256","name":"","type":"uint256"}],"stateMutability":"view","type":"function"},{"inputs":[{"internalType":"uint256","name":"exchangeRateLast","type":"uint256"},{"internalType":"uint256","name":"exchangeRateCurrent","type":"uint256"},{"internalType":"uint256","name":"timeElapsed","type":"uint256"}],"name":"getAnnualizedBaseRate","outputs":[{"internalType":"uint256","name":"","type":"uint256"}],"stateMutability":"pure","type":"function"},{"inputs":[{"internalType":"address","name":"lpTokenPair","type":"address"}],"name":"getNebula","outputs":[{"components":[{"internalType":"bool","name":"initialized","type":"bool"},{"internalType":"uint88","name":"oracleId","type":"uint88"},{"internalType":"string","name":"name","type":"string"},{"internalType":"address","name":"underlying","type":"address"},{"internalType":"contract IERC20[]","name":"poolTokens","type":"address[]"},{"internalType":"uint256[]","name":"poolTokensDecimals","type":"uint256[]"},{"internalType":"contract AggregatorV3Interface[]","name":"priceFeeds","type":"address[]"},{"internalType":"uint256[]","name":"priceFeedsDecimals","type":"uint256[]"}],"internalType":"struct ICygnusNebulaOracle.CygnusNebula","name":"","type":"tuple"}],"stateMutability":"view","type":"function"},{"inputs":[{"internalType":"contract AggregatorV3Interface","name":"priceFeed","type":"address"}],"name":"getPriceInternal","outputs":[{"internalType":"uint256","name":"","type":"uint256"}],"stateMutability":"view","type":"function"},{"inputs":[{"internalType":"address","name":"lpTokenPair","type":"address"},{"internalType":"contract AggregatorV3Interface[]","name":"aggregators","type":"address[]"}],"name":"initializeNebula","outputs":[],"stateMutability":"nonpayable","type":"function"},{"inputs":[{"internalType":"address","name":"lpTokenPair","type":"address"}],"name":"lpTokenPriceUsd","outputs":[{"internalType":"uint256","name":"lpTokenPrice","type":"uint256"}],"stateMutability":"view","type":"function"},{"inputs":[],"name":"name","outputs":[{"internalType":"string","name":"","type":"string"}],"stateMutability":"view","type":"function"},{"inputs":[],"name":"nebulaSize","outputs":[{"internalType":"uint88","name":"","type":"uint88"}],"stateMutability":"view","type":"function"},{"inputs":[],"name":"pendingAdmin","outputs":[{"internalType":"address","name":"","type":"address"}],"stateMutability":"view","type":"function"},{"inputs":[],"name":"setOracleAdmin","outputs":[],"stateMutability":"nonpayable","type":"function"},{"inputs":[{"internalType":"address","name":"newPendingAdmin","type":"address"}],"name":"setOraclePendingAdmin","outputs":[],"stateMutability":"nonpayable","type":"function"},{"inputs":[],"name":"symbol","outputs":[{"internalType":"string","name":"","type":"string"}],"stateMutability":"view","type":"function"},{"inputs":[],"name":"version","outputs":[{"internalType":"string","name":"","type":"string"}],"stateMutability":"view","type":"function"}],"evm":{"bytecode":{"linkReferences":{},"object":"60e080604052346200015a57604081620032e980380380916200002382856200015f565b8339810103126200015a5780516001600160a01b039182821691908282036200015a576020015192831683036200015a576000805460ff19166001178155600380546001600160a01b0319163317905560809190915260405163313ce56760e01b815291602090839060049082905afa9182156200014d57819262000100575b505060a05260c05260405161314f90816200019a8239608051816101b3015260a0518181816106c001528181611822015281816119430152611c84015260c05181818161069401528181610807015281816119070152611c580152f35b9091506020813d821162000144575b816200011e602093836200015f565b810103126200014057519060ff821682036200013d57503880620000a3565b80fd5b5080fd5b3d91506200010f565b50604051903d90823e3d90fd5b600080fd5b601f909101601f19168101906001600160401b038211908210176200018357604052565b634e487b7160e01b600052604160045260246000fdfe608080604052600436101561001357600080fd5b60003560e01c90816306fdde031461284057508063131ad74e14611e4c57806317e5a1a1146119ff578063193d1da9146118985780632678224714611846578063313ce567146117ea5780633d0e9707146117a9578063411557d11461175c57806354fd4d50146116e057806357a4ad7c14610b2357806362bbb6e0146109dd57806365c9b257146108655780638a790cf21461082b5780638eb6f8f0146107bc57806395d89b4114610740578063ba3941e7146106f7578063cadbcc211461065b578063d02c70e8146105d6578063e6a69ab814610599578063f0ac40c4146101d7578063f6b9fdfb146101685763f851a4401461011157600080fd5b346101635760007ffffffffffffffffffffffffffffffffffffffffffffffffffffffffffffffffc36011261016357602073ffffffffffffffffffffffffffffffffffffffff60035416604051908152f35b600080fd5b346101635760007ffffffffffffffffffffffffffffffffffffffffffffffffffffffffffffffffc36011261016357602060405173ffffffffffffffffffffffffffffffffffffffff7f0000000000000000000000000000000000000000000000000000000000000000168152f35b346101635760207ffffffffffffffffffffffffffffffffffffffffffffffffffffffffffffffffc3601126101635773ffffffffffffffffffffffffffffffffffffffff6102236129d2565b606060e0604051610233816128f2565b60008152600060208201528260408201526000838201528260808201528260a08201528260c08201520152166000526001602052604060002060405190610279826128f2565b6affffffffffffffffffffff815460ff81161515845260081c16602083015260018101604051908160008254926102af84612b8c565b80845293600181169081156105595750600114610512575b506102d49250038261292b565b604083015273ffffffffffffffffffffffffffffffffffffffff6002820154166060830152600381016040518082602082945493848152019060005260206000209260005b8181106104e357505061032e9250038261292b565b608083015261033f60048201612bdf565b60a08301526005810160405190816020825491828152019160005260206000209060005b8181106104b757866103896006888861037e818a038261292b565b60c085015201612bdf565b60e0820152604051602081528151151560208201526affffffffffffffffffffff602083015116604082015260408201516103d26101009182606085015261012084019061298f565b9073ffffffffffffffffffffffffffffffffffffffff60608501511660808401526104446104306080860151937fffffffffffffffffffffffffffffffffffffffffffffffffffffffffffffffe094858783030160a0880152612a29565b60a0860151848683030160c08701526129f5565b9360c081015194838582030160e08601526020808751928381520196019060005b81811061048b5786806104878a898960e08a01519185840301908501526129f5565b0390f35b825173ffffffffffffffffffffffffffffffffffffffff16885260209788019790920191600101610465565b825473ffffffffffffffffffffffffffffffffffffffff16845260209093019260019283019201610363565b845473ffffffffffffffffffffffffffffffffffffffff16835260019485019486945060209093019201610319565b90506000929192526020600020906000915b81831061053d5750509060206102d492820101866102c7565b6020919350806001915483858801015201910190918392610524565b602093506102d49592507fffffffffffffffffffffffffffffffffffffffffffffffffffffffffffffff0091501682840152151560051b820101866102c7565b346101635760007ffffffffffffffffffffffffffffffffffffffffffffffffffffffffffffffffc3601126101635760206040516301e133808152f35b346101635760207ffffffffffffffffffffffffffffffffffffffffffffffffffffffffffffffffc360112610163576004356002548110156101635773ffffffffffffffffffffffffffffffffffffffff60209160026000527f405787fa12a823e0f2b7631cc41b3ba8828b3321ca811111fa75cd3aa3bb5ace015416604051908152f35b346101635760007ffffffffffffffffffffffffffffffffffffffffffffffffffffffffffffffffc3601126101635760206106ef6106b87f0000000000000000000000000000000000000000000000000000000000000000612acc565b6106e96106e47f0000000000000000000000000000000000000000000000000000000000000000612c69565b612c7a565b90612c30565b604051908152f35b346101635760007ffffffffffffffffffffffffffffffffffffffffffffffffffffffffffffffffc3601126101635760206affffffffffffffffffffff60025416604051908152f35b346101635760007ffffffffffffffffffffffffffffffffffffffffffffffffffffffffffffffffc3601126101635761048760405161077e8161290f565b600981527f4379674e6562756c610000000000000000000000000000000000000000000000602082015260405191829160208352602083019061298f565b346101635760007ffffffffffffffffffffffffffffffffffffffffffffffffffffffffffffffffc36011261016357602060405173ffffffffffffffffffffffffffffffffffffffff7f0000000000000000000000000000000000000000000000000000000000000000168152f35b346101635760007ffffffffffffffffffffffffffffffffffffffffffffffffffffffffffffffffc36011261016357602060405160088152f35b346101635760207ffffffffffffffffffffffffffffffffffffffffffffffffffffffffffffffffc3601126101635761089c6129d2565b60005460ff8116156109b3577fffffffffffffffffffffffffffffffffffffffffffffffffffffffffffffff0016806000556108d6612da7565b6004549173ffffffffffffffffffffffffffffffffffffffff808216938181168514610982577fffffffffffffffffffffffff0000000000000000000000000000000000000000169093176004556003546040805173ffffffffffffffffffffffffffffffffffffffff9290951682168552911660208401526001927f0ddc205eecbcb9fd6100d787269a63285115c1e35297b5cd128aa171376b762291819081015b0390a117600055005b602485604051907f3181df520000000000000000000000000000000000000000000000000000000082526004820152fd5b60046040517f37ed32e8000000000000000000000000000000000000000000000000000000008152fd5b346101635760007ffffffffffffffffffffffffffffffffffffffffffffffffffffffffffffffffc3601126101635760005460ff8116156109b3577fffffffffffffffffffffffffffffffffffffffffffffffffffffffffffffff001680600055610a46612da7565b6004549073ffffffffffffffffffffffffffffffffffffffff808316928315610af257600380547fffffffffffffffffffffffff0000000000000000000000000000000000000000808216871790925591166004556040805173ffffffffffffffffffffffffffffffffffffffff9290931682168352931660208201526001927f5d79527e1742e3cb9a668b777100775a1648a5a8adea9c578d164dd2d0908aac919081908101610979565b602484604051907fb96488170000000000000000000000000000000000000000000000000000000082526004820152fd5b346101635760407ffffffffffffffffffffffffffffffffffffffffffffffffffffffffffffffffc36011261016357610b5a6129d2565b67ffffffffffffffff60243511610163573660236024350112156101635767ffffffffffffffff60243560040135116101635736602480356004013560051b81350101116101635760005460ff8116156109b3577fffffffffffffffffffffffffffffffffffffffffffffffffffffffffffffff0016600055610bdb612da7565b73ffffffffffffffffffffffffffffffffffffffff8116600052600160205260406000209081549160ff8316611699576040517f38fff2d000000000000000000000000000000000000000000000000000000000815260208160048173ffffffffffffffffffffffffffffffffffffffff87165afa9081156113bf57600091611667575b50604051907ff94d4668000000000000000000000000000000000000000000000000000000008252600482015260008160248173ba12222222228d8ba445958a75a0704d566bf2c85afa9081156113bf57600091611510575b50610cc860243560040135612ce4565b91610cd860243560040135612ce4565b9460005b6024356004013581106113cb57507fffffffffffffffffffffffffffffffffffffffff0000000000000000000000ff6bffffffffffffffffffffff0060025460081b1691161781556040517f06fdde0300000000000000000000000000000000000000000000000000000000815260008160048173ffffffffffffffffffffffffffffffffffffffff89165afa9081156113bf57600091611317575b5080519067ffffffffffffffff8211611164578190610d9a6001850154612b8c565b601f81116112d7575b50602090601f831160011461120b57600092611200575b50507fffffffffffffffffffffffffffffffffffffffffffffffffffffffffffffffff8260011b9260031b1c19161760018201555b6002810173ffffffffffffffffffffffffffffffffffffffff85167fffffffffffffffffffffffff0000000000000000000000000000000000000000825416179055815167ffffffffffffffff8111611164576801000000000000000081116111645760038201610e6582825481845583612d84565b6020840190600052602060002060005b8381106111d65750505050825167ffffffffffffffff8111611164576801000000000000000081116111645760048201610eb482825481845583612d84565b6020850190600052602060002060005b8381106111c257505050506801000000000000000060243560040135116111645760058101805460046024350135808355610f0192909190612d84565b602480350192836005830160005260206000209060005b6024356004013581106111a757505050855167ffffffffffffffff8111611164576801000000000000000081116111645760068301610f5c82825481845583612d84565b6020880190600052602060002060005b838110611193575050505060017fffffffffffffffffffffffffffffffffffffffffffffffffffffffffffffff00835416178255600254680100000000000000008110156111645760018101806002558110156111355760209373ffffffffffffffffffffffffffffffffffffffff6affffffffffffffffffffff611077956110699460026000527f405787fa12a823e0f2b7631cc41b3ba8828b3321ca811111fa75cd3aa3bb5ace01838b167fffffffffffffffffffffffff00000000000000000000000000000000000000008254161790555460081c16976040519860018a52878a015216604088015260e0606088015260e0870190612a29565b9085820360808701526129f5565b83810360a0850152602435600401358152019060005b6024356004013581106110ff577fa10f24181361eab11f2968f6620bfbaa4e57629872406f8629efd8d295586b9484806110cf868983820360c08501526129f5565b0390a1600080547fffffffffffffffffffffffffffffffffffffffffffffffffffffffffffffff00166001179055005b909182359073ffffffffffffffffffffffffffffffffffffffff821680920361016357602081600193829352019301910161108d565b7f4e487b7100000000000000000000000000000000000000000000000000000000600052603260045260246000fd5b7f4e487b7100000000000000000000000000000000000000000000000000000000600052604160045260246000fd5b600190602084519401938184015501610f6c565b60019060206111b584612d4c565b9301928185015501610f18565b600190602084519401938184015501610ec4565b600190602073ffffffffffffffffffffffffffffffffffffffff8551169401938184015501610e75565b015190508780610dba565b9250600184016000526020600020906000935b7fffffffffffffffffffffffffffffffffffffffffffffffffffffffffffffffe0841685106112bc5760019450837fffffffffffffffffffffffffffffffffffffffffffffffffffffffffffffffe0811610611285575b505050811b016001820155610def565b01517fffffffffffffffffffffffffffffffffffffffffffffffffffffffffffffffff60f88460031b161c19169055878080611275565b8181015183556020948501946001909301929091019061121e565b61130790600186016000526020600020601f850160051c8101916020861061130d575b601f0160051c0190612d6d565b88610da3565b90915081906112fa565b90503d806000833e611329818361292b565b8101906020818303126101635780519067ffffffffffffffff8211610163570181601f8201121561016357805167ffffffffffffffff8111611164576040519261139b60207fffffffffffffffffffffffffffffffffffffffffffffffffffffffffffffffe0601f850116018561292b565b81845260208284010111610163576113b9916020808501910161296c565b86610d78565b6040513d6000823e3d90fd5b80602073ffffffffffffffffffffffffffffffffffffffff6113ef60049488612cb8565b5116604051938480927f313ce5670000000000000000000000000000000000000000000000000000000082525afa9182156113bf5760049260ff916000916114f1575b501661143e8288612cb8565b52602073ffffffffffffffffffffffffffffffffffffffff61146860248460051b81350101612d4c565b16604051938480927f313ce5670000000000000000000000000000000000000000000000000000000082525afa9182156113bf576114bd9260ff916000916114c2575b50166114b7828a612cb8565b52612c8b565b610cdc565b6114e4915060203d6020116114ea575b6114dc818361292b565b810190612d33565b8a6114ab565b503d6114d2565b61150a915060203d6020116114ea576114dc818361292b565b8a611432565b3d9150816000823e611522828261292b565b60608183810103126101635780519167ffffffffffffffff831161016357808201601f84840101121561016357828201519261155d84612ccc565b9361156b604051958661292b565b808552602085019183850160208360051b8388010101116101635791602083860101925b60208360051b828801010184106116345750505050602082015167ffffffffffffffff811161016357818301601f82850101121561016357808301519260206115d785612ccc565b6115e4604051918261292b565b8581520192810160208560051b8484010101116101635780820160200192915b60208560051b8284010101841061162057505050505084610cb8565b602080809486518152019401939250611604565b83519173ffffffffffffffffffffffffffffffffffffffff8316830361016357602081819482935201940193915061158f565b90506020813d602011611691575b816116826020938361292b565b81010312610163575184610c5f565b3d9150611675565b60248273ffffffffffffffffffffffffffffffffffffffff604051917f48a979dc000000000000000000000000000000000000000000000000000000008352166004820152fd5b346101635760007ffffffffffffffffffffffffffffffffffffffffffffffffffffffffffffffffc3601126101635761048760405161171e8161290f565b600581527f312e302e30000000000000000000000000000000000000000000000000000000602082015260405191829160208352602083019061298f565b346101635760007ffffffffffffffffffffffffffffffffffffffffffffffffffffffffffffffffc36011261016357602060405173ba12222222228d8ba445958a75a0704d566bf2c88152f35b346101635760207ffffffffffffffffffffffffffffffffffffffffffffffffffffffffffffffffc3601126101635760206106ef6117e56129d2565b612acc565b346101635760007ffffffffffffffffffffffffffffffffffffffffffffffffffffffffffffffffc36011261016357602060405160ff7f0000000000000000000000000000000000000000000000000000000000000000168152f35b346101635760007ffffffffffffffffffffffffffffffffffffffffffffffffffffffffffffffffc36011261016357602073ffffffffffffffffffffffffffffffffffffffff60045416604051908152f35b34610163576020807ffffffffffffffffffffffffffffffffffffffffffffffffffffffffffffffffc3601126101635773ffffffffffffffffffffffffffffffffffffffff90816118e76129d2565b16806000526001825260406000209060ff825416156119ce57509161192b7f0000000000000000000000000000000000000000000000000000000000000000612acc565b60038401549161193a83612ce4565b600590950180547f00000000000000000000000000000000000000000000000000000000000000009060005b8681106119805760405188815280610487818b018c6129f5565b81811015611135576119c990846000526119bf6119a487838c600020015416612acc565b6119b96119b36106e488612c69565b8a612a8a565b90612df8565b6114b7828c612cb8565b611966565b602490604051907ffb642b4d0000000000000000000000000000000000000000000000000000000082526004820152fd5b34610163576020807ffffffffffffffffffffffffffffffffffffffffffffffffffffffffffffffffc3601126101635773ffffffffffffffffffffffffffffffffffffffff9081611a4e6129d2565b169182600052600190818352604060002060405192611a6c846128f2565b6affffffffffffffffffffff825460ff81161515865260081c168585015280820160405190816000825492611aa084612b8c565b938484528a8782169182600014611e0e575050600114611dcd575b50611ac89250038261292b565b60408501528260028301541691606085019283526003810194604051808789829954938481520190600052896000209260005b878c838310611db65750505050611b149250038761292b565b60808101958652611b2760048301612bdf565b60a08201526005820191604051809384918a82549182815201916000528a6000209060005b888d838310611d9f57505050505091611b6c600692611b7994038661292b565b60c0840194855201612bdf565b60e08201525115611d6e5760049596506040848451168151978880927f9b02cdde0000000000000000000000000000000000000000000000000000000082525afa9586156113bf57600096611d3a575b50918187937fffffffffffffffffffffffffffffffffffffffffffffffffffffffffffffffff96959396956000975b611cdf575b505050600494505116604051938480927f18160ddd0000000000000000000000000000000000000000000000000000000082525afa9182156113bf57600092611cae575b50906106ef92611c5092612edd565b6119b9611c7c7f0000000000000000000000000000000000000000000000000000000000000000612acc565b611ca86106e47f0000000000000000000000000000000000000000000000000000000000000000612c69565b90612a8a565b91508382813d8311611cd8575b611cc5818361292b565b81010312610163579051906106ef611c41565b503d611cbb565b919395909294825151881015611d2f5750611d1a90611d0a87611d038a8751612cb8565b5116612acc565b80821015611d2857505b96612c8b565b959492909188949282611bf8565b9050611d14565b949281969450611bfd565b9095506040813d604011611d66575b81611d566040938361292b565b8101031261016357519487611bc9565b3d9150611d49565b602487604051907ffb642b4d0000000000000000000000000000000000000000000000000000000082526004820152fd5b84548d168652899650909401939283019201611b4c565b86548c168552958101958c95509093019201611afb565b915050600052818780600020856000915b858310611df5575050611ac893508201018a611abb565b8091929450548385880101520191018890858593611dde565b7fffffffffffffffffffffffffffffffffffffffffffffffffffffffffffffff001685820152611ac895151560051b85010192508c9150611abb9050565b346101635760607ffffffffffffffffffffffffffffffffffffffffffffffffffffffffffffffffc36011261016357670de0b6b3a76400006714057b7ef767814f8082611e9a600435612f73565b0204916024928282611eac8635612f73565b020481810391818311612812576301e1338080840293840414911417156127e457611eda9060443590612c30565b91680736ea4425c11ac6318310156127b4576706f05b59d3b2000090829302010490680a688906bd8b00000082101561278557809160401b0490778000000000000000000000000000000000000000000000006780000000000000008316612766575b6740000000000000008316612753575b6720000000000000008316612740575b671000000000000000831661272d575b670800000000000000831661271a575b6704000000000000008316612707575b67020000000000000083166126f4575b67010000000000000083166126e1575b668000000000000083166126ce575b664000000000000083166126bb575b662000000000000083166126a8575b66100000000000008316612695575b66080000000000008316612682575b6604000000000000831661266f575b6602000000000000831661265c575b66010000000000008316612649575b658000000000008316612636575b654000000000008316612623575b652000000000008316612610575b6510000000000083166125fd575b6508000000000083166125ea575b6504000000000083166125d7575b6502000000000083166125c4575b6501000000000083166125b1575b648000000000831661259e575b644000000000831661258b575b6420000000008316612578575b6410000000008316612565575b6408000000008316612552575b640400000000831661253f575b640200000000831661252c575b6401000000008316612519575b63800000008316612506575b634000000083166124f3575b632000000083166124e0575b631000000083166124cd575b630800000083166124ba575b630400000083166124a7575b63020000008316612494575b63010000008316612481575b62800000831661246e575b62400000831661245b575b622000008316612448575b621000008316612435575b620800008316612422575b62040000831661240f575b6202000083166123fc575b6201000083166123e9575b61800083166123d6575b61400083166123c3575b61200083166123b0575b611000831661239d575b610800831661238a575b6104008316612377575b6102008316612364575b6101008316612351575b6080831661233e575b6040831661232b575b60208316612318575b60108316612305575b600883166122f2575b600483166122df575b600283166122cc575b600183166122b9575b029060401c60bf031c7ffffffffffffffffffffffffffffffffffffffffffffffffff21f494c589c0000810190811161228b57602090604051908152f35b507f4e487b710000000000000000000000000000000000000000000000000000000060005260116004526000fd5b680100000000000000010260401c61224d565b680100000000000000010260401c612244565b680100000000000000030260401c61223b565b680100000000000000060260401c612232565b6801000000000000000b0260401c612229565b680100000000000000160260401c612220565b6801000000000000002c0260401c612217565b680100000000000000590260401c61220e565b680100000000000000b10260401c612205565b680100000000000001630260401c6121fb565b680100000000000002c60260401c6121f1565b6801000000000000058c0260401c6121e7565b68010000000000000b170260401c6121dd565b6801000000000000162e0260401c6121d3565b68010000000000002c5d0260401c6121c9565b680100000000000058b90260401c6121bf565b6801000000000000b1720260401c6121b5565b680100000000000162e40260401c6121aa565b6801000000000002c5c80260401c61219f565b68010000000000058b910260401c612194565b680100000000000b17210260401c612189565b68010000000000162e430260401c61217e565b680100000000002c5c860260401c612173565b6801000000000058b90c0260401c612168565b68010000000000b172180260401c61215d565b6801000000000162e4300260401c612151565b68010000000002c5c8600260401c612145565b680100000000058b90c00260401c612139565b6801000000000b17217f0260401c61212d565b680100000000162e42ff0260401c612121565b6801000000002c5c85fe0260401c612115565b68010000000058b90bfc0260401c612109565b680100000000b17217f80260401c6120fd565b68010000000162e42ff10260401c6120f0565b680100000002c5c85fe30260401c6120e3565b6801000000058b90bfce0260401c6120d6565b68010000000b17217fbb0260401c6120c9565b6801000000162e42fff00260401c6120bc565b68010000002c5c8601cc0260401c6120af565b680100000058b90c0b490260401c6120a2565b6801000000b1721835510260401c612095565b680100000162e430e5a20260401c612087565b6801000002c5c863b73f0260401c612079565b68010000058b90cf1e6e0260401c61206b565b680100000b1721bcfc9a0260401c61205d565b68010000162e43f4f8310260401c61204f565b680100002c5c89d5ec6d0260401c612041565b6801000058b91b5bc9ae0260401c612033565b68010000b17255775c040260401c612025565b6801000162e525ee05470260401c612016565b68010002c5cc37da94920260401c612007565b680100058ba01fb9f96d0260401c611ff8565b6801000b175effdc76ba0260401c611fe9565b680100162f3904051fa10260401c611fda565b6801002c605e2e8cec500260401c611fcb565b68010058c86da1c09ea20260401c611fbc565b680100b1afa5abcbed610260401c611fad565b68010163da9fb33356d80260401c611f9d565b680102c9a3e778060ee70260401c611f8d565b6801059b0d31585743ae0260401c611f7d565b68010b5586cf9890f62a0260401c611f6d565b6801172b83c7d517adce0260401c611f5d565b6801306fe0a31b7152df0260401c611f4d565b5077b504f333f9de648480000000000000000000000000000000611f3d565b50604051907f4a4f26f10000000000000000000000000000000000000000000000000000000082526004820152fd5b5050604051907f315da0680000000000000000000000000000000000000000000000000000000082526004820152fd5b837f4e487b710000000000000000000000000000000000000000000000000000000060005260116004526000fd5b857f4e487b710000000000000000000000000000000000000000000000000000000060005260116004526000fd5b346101635760007ffffffffffffffffffffffffffffffffffffffffffffffffffffffffffffffffc36011261016357606081019080821067ffffffffffffffff8311176111645761048791604052602481527f4379676e75732d4e6562756c613a204d657461537461626c6520425054204f7260208201527f61636c6500000000000000000000000000000000000000000000000000000000604082015260405191829160208352602083019061298f565b610100810190811067ffffffffffffffff82111761116457604052565b6040810190811067ffffffffffffffff82111761116457604052565b90601f7fffffffffffffffffffffffffffffffffffffffffffffffffffffffffffffffe0910116810190811067ffffffffffffffff82111761116457604052565b60005b83811061297f5750506000910152565b818101518382015260200161296f565b907fffffffffffffffffffffffffffffffffffffffffffffffffffffffffffffffe0601f6020936129cb8151809281875287808801910161296c565b0116010190565b6004359073ffffffffffffffffffffffffffffffffffffffff8216820361016357565b90815180825260208080930193019160005b828110612a15575050505090565b835185529381019392810192600101612a07565b90815180825260208080930193019160005b828110612a49575050505090565b835173ffffffffffffffffffffffffffffffffffffffff1685529381019392810192600101612a3b565b519069ffffffffffffffffffff8216820361016357565b81810292918115918404141715612a9d57565b7f4e487b7100000000000000000000000000000000000000000000000000000000600052601160045260246000fd5b60a073ffffffffffffffffffffffffffffffffffffffff916004604051809481937ffeaf968c000000000000000000000000000000000000000000000000000000008352165afa9081156113bf57600091612b3d575b506402540be40090818102918183041490151715612a9d5790565b9060a0823d8211612b84575b81612b5660a0938361292b565b81010312612b815750612b6881612a73565b50612b7a608060208301519201612a73565b5038612b22565b80fd5b3d9150612b49565b90600182811c92168015612bd5575b6020831014612ba657565b7f4e487b7100000000000000000000000000000000000000000000000000000000600052602260045260246000fd5b91607f1691612b9b565b9060405191828154918282526020928383019160005283600020936000905b828210612c1657505050612c149250038361292b565b565b855484526001958601958895509381019390910190612bfe565b8115612c3a570490565b7f4e487b7100000000000000000000000000000000000000000000000000000000600052601260045260246000fd5b60ff166012039060ff8211612a9d57565b60ff16604d8111612a9d57600a0a90565b7fffffffffffffffffffffffffffffffffffffffffffffffffffffffffffffffff8114612a9d5760010190565b80518210156111355760209160051b010190565b67ffffffffffffffff81116111645760051b60200190565b90612cee82612ccc565b612cfb604051918261292b565b8281527fffffffffffffffffffffffffffffffffffffffffffffffffffffffffffffffe0612d298294612ccc565b0190602036910137565b90816020910312610163575160ff811681036101635790565b3573ffffffffffffffffffffffffffffffffffffffff811681036101635790565b818110612d78575050565b60008155600101612d6d565b91818110612d9157505050565b612c149260005260206000209182019101612d6d565b73ffffffffffffffffffffffffffffffffffffffff600354163303612dc857565b60246040517f97fcc9e2000000000000000000000000000000000000000000000000000000008152336004820152fd5b670de0b6b3a7640000917fffffffffffffffffffffffffffffffffffffffffffffffffffffffffffffffff8383099280830292838086109503948086039514612ecd5782851015612e9657908291096001821901821680920460028082600302188083028203028083028203028083028203028083028203028083028203028092029003029360018380600003040190848311900302920304170290565b60448584604051917f773cc18c00000000000000000000000000000000000000000000000000000000835260048301526024820152fd5b505090612eda9250612c30565b90565b90917fffffffffffffffffffffffffffffffffffffffffffffffffffffffffffffffff8383099280830292838086109503948086039514612ecd5782851015612e9657908291096001821901821680920460028082600302188083028203028083028203028083028203028083028203028083028203028092029003029360018380600003040190848311900302920304170290565b90670de0b6b3a76400008083106130e8576000928181047001000000000000000000000000000000008110156130dd575b680100000000000000008110156130c8575b6401000000008110156130b3575b6201000081101561309e575b610100811015613089575b6010811015613074575b600481101561305f575b6002111561304d575b818402931c90808214613049576706f05b59d3b2000091825b61301a57505050565b808291020491671bc16d674ec8000083101561303b575b60011c9182613011565b809294019360011c91613031565b5050565b9260018101809111612a9d5792612ff8565b60021c9360028101809111612a9d5793612fef565b60041c9360048101809111612a9d5793612fe5565b60081c9360088101809111612a9d5793612fdb565b60101c9360108101809111612a9d5793612fd0565b60201c9360208101809111612a9d5793612fc4565b60401c9360408101809111612a9d5793612fb6565b60809450841c612fa4565b602483604051907fd88504dc0000000000000000000000000000000000000000000000000000000082526004820152fdfea26469706673582212202ba969c2c1af9d515b428c168afe2b1ebc0102201530ec28cfbe7499cff6ab2e64736f6c63430008110033","opcodes":"PUSH1 0xE0 DUP1 PUSH1 0x40 MSTORE CALLVALUE PUSH3 0x15A JUMPI PUSH1 0x40 DUP2 PUSH3 0x32E9 DUP1 CODESIZE SUB DUP1 SWAP2 PUSH3 0x23 DUP3 DUP6 PUSH3 0x15F JUMP JUMPDEST DUP4 CODECOPY DUP2 ADD SUB SLT PUSH3 0x15A JUMPI DUP1 MLOAD PUSH1 0x1 PUSH1 0x1 PUSH1 0xA0 SHL SUB SWAP2 DUP3 DUP3 AND SWAP2 SWAP1 DUP3 DUP3 SUB PUSH3 0x15A JUMPI PUSH1 0x20 ADD MLOAD SWAP3 DUP4 AND DUP4 SUB PUSH3 0x15A JUMPI PUSH1 0x0 DUP1 SLOAD PUSH1 0xFF NOT AND PUSH1 0x1 OR DUP2 SSTORE PUSH1 0x3 DUP1 SLOAD PUSH1 0x1 PUSH1 0x1 PUSH1 0xA0 SHL SUB NOT AND CALLER OR SWAP1 SSTORE PUSH1 0x80 SWAP2 SWAP1 SWAP2 MSTORE PUSH1 0x40 MLOAD PUSH4 0x313CE567 PUSH1 0xE0 SHL DUP2 MSTORE SWAP2 PUSH1 0x20 SWAP1 DUP4 SWAP1 PUSH1 0x4 SWAP1 DUP3 SWAP1 GAS STATICCALL SWAP2 DUP3 ISZERO PUSH3 0x14D JUMPI DUP2 SWAP3 PUSH3 0x100 JUMPI JUMPDEST POP POP PUSH1 0xA0 MSTORE PUSH1 0xC0 MSTORE PUSH1 0x40 MLOAD PUSH2 0x314F SWAP1 DUP2 PUSH3 0x19A DUP3 CODECOPY PUSH1 0x80 MLOAD DUP2 PUSH2 0x1B3 ADD MSTORE PUSH1 0xA0 MLOAD DUP2 DUP2 DUP2 PUSH2 0x6C0 ADD MSTORE DUP2 DUP2 PUSH2 0x1822 ADD MSTORE DUP2 DUP2 PUSH2 0x1943 ADD MSTORE PUSH2 0x1C84 ADD MSTORE PUSH1 0xC0 MLOAD DUP2 DUP2 DUP2 PUSH2 0x694 ADD MSTORE DUP2 DUP2 PUSH2 0x807 ADD MSTORE DUP2 DUP2 PUSH2 0x1907 ADD MSTORE PUSH2 0x1C58 ADD MSTORE RETURN JUMPDEST SWAP1 SWAP2 POP PUSH1 0x20 DUP2 RETURNDATASIZE DUP3 GT PUSH3 0x144 JUMPI JUMPDEST DUP2 PUSH3 0x11E PUSH1 0x20 SWAP4 DUP4 PUSH3 0x15F JUMP JUMPDEST DUP2 ADD SUB SLT PUSH3 0x140 JUMPI MLOAD SWAP1 PUSH1 0xFF DUP3 AND DUP3 SUB PUSH3 0x13D JUMPI POP CODESIZE DUP1 PUSH3 0xA3 JUMP JUMPDEST DUP1 REVERT JUMPDEST POP DUP1 REVERT JUMPDEST RETURNDATASIZE SWAP2 POP PUSH3 0x10F JUMP JUMPDEST POP PUSH1 0x40 MLOAD SWAP1 RETURNDATASIZE SWAP1 DUP3 RETURNDATACOPY RETURNDATASIZE SWAP1 REVERT JUMPDEST PUSH1 0x0 DUP1 REVERT JUMPDEST PUSH1 0x1F SWAP1 SWAP2 ADD PUSH1 0x1F NOT AND DUP2 ADD SWAP1 PUSH1 0x1 PUSH1 0x1 PUSH1 0x40 SHL SUB DUP3 GT SWAP1 DUP3 LT OR PUSH3 0x183 JUMPI PUSH1 0x40 MSTORE JUMP JUMPDEST PUSH4 0x4E487B71 PUSH1 0xE0 SHL PUSH1 0x0 MSTORE PUSH1 0x41 PUSH1 0x4 MSTORE PUSH1 0x24 PUSH1 0x0 REVERT INVALID PUSH1 0x80 DUP1 PUSH1 0x40 MSTORE PUSH1 0x4 CALLDATASIZE LT ISZERO PUSH2 0x13 JUMPI PUSH1 0x0 DUP1 REVERT JUMPDEST PUSH1 0x0 CALLDATALOAD PUSH1 0xE0 SHR SWAP1 DUP2 PUSH4 0x6FDDE03 EQ PUSH2 0x2840 JUMPI POP DUP1 PUSH4 0x131AD74E EQ PUSH2 0x1E4C JUMPI DUP1 PUSH4 0x17E5A1A1 EQ PUSH2 0x19FF JUMPI DUP1 PUSH4 0x193D1DA9 EQ PUSH2 0x1898 JUMPI DUP1 PUSH4 0x26782247 EQ PUSH2 0x1846 JUMPI DUP1 PUSH4 0x313CE567 EQ PUSH2 0x17EA JUMPI DUP1 PUSH4 0x3D0E9707 EQ PUSH2 0x17A9 JUMPI DUP1 PUSH4 0x411557D1 EQ PUSH2 0x175C JUMPI DUP1 PUSH4 0x54FD4D50 EQ PUSH2 0x16E0 JUMPI DUP1 PUSH4 0x57A4AD7C EQ PUSH2 0xB23 JUMPI DUP1 PUSH4 0x62BBB6E0 EQ PUSH2 0x9DD JUMPI DUP1 PUSH4 0x65C9B257 EQ PUSH2 0x865 JUMPI DUP1 PUSH4 0x8A790CF2 EQ PUSH2 0x82B JUMPI DUP1 PUSH4 0x8EB6F8F0 EQ PUSH2 0x7BC JUMPI DUP1 PUSH4 0x95D89B41 EQ PUSH2 0x740 JUMPI DUP1 PUSH4 0xBA3941E7 EQ PUSH2 0x6F7 JUMPI DUP1 PUSH4 0xCADBCC21 EQ PUSH2 0x65B JUMPI DUP1 PUSH4 0xD02C70E8 EQ PUSH2 0x5D6 JUMPI DUP1 PUSH4 0xE6A69AB8 EQ PUSH2 0x599 JUMPI DUP1 PUSH4 0xF0AC40C4 EQ PUSH2 0x1D7 JUMPI DUP1 PUSH4 0xF6B9FDFB EQ PUSH2 0x168 JUMPI PUSH4 0xF851A440 EQ PUSH2 0x111 JUMPI PUSH1 0x0 DUP1 REVERT JUMPDEST CALLVALUE PUSH2 0x163 JUMPI PUSH1 0x0 PUSH32 0xFFFFFFFFFFFFFFFFFFFFFFFFFFFFFFFFFFFFFFFFFFFFFFFFFFFFFFFFFFFFFFFC CALLDATASIZE ADD SLT PUSH2 0x163 JUMPI PUSH1 0x20 PUSH20 0xFFFFFFFFFFFFFFFFFFFFFFFFFFFFFFFFFFFFFFFF PUSH1 0x3 SLOAD AND PUSH1 0x40 MLOAD SWAP1 DUP2 MSTORE RETURN JUMPDEST PUSH1 0x0 DUP1 REVERT JUMPDEST CALLVALUE PUSH2 0x163 JUMPI PUSH1 0x0 PUSH32 0xFFFFFFFFFFFFFFFFFFFFFFFFFFFFFFFFFFFFFFFFFFFFFFFFFFFFFFFFFFFFFFFC CALLDATASIZE ADD SLT PUSH2 0x163 JUMPI PUSH1 0x20 PUSH1 0x40 MLOAD PUSH20 0xFFFFFFFFFFFFFFFFFFFFFFFFFFFFFFFFFFFFFFFF PUSH32 0x0 AND DUP2 MSTORE RETURN JUMPDEST CALLVALUE PUSH2 0x163 JUMPI PUSH1 0x20 PUSH32 0xFFFFFFFFFFFFFFFFFFFFFFFFFFFFFFFFFFFFFFFFFFFFFFFFFFFFFFFFFFFFFFFC CALLDATASIZE ADD SLT PUSH2 0x163 JUMPI PUSH20 0xFFFFFFFFFFFFFFFFFFFFFFFFFFFFFFFFFFFFFFFF PUSH2 0x223 PUSH2 0x29D2 JUMP JUMPDEST PUSH1 0x60 PUSH1 0xE0 PUSH1 0x40 MLOAD PUSH2 0x233 DUP2 PUSH2 0x28F2 JUMP JUMPDEST PUSH1 0x0 DUP2 MSTORE PUSH1 0x0 PUSH1 0x20 DUP3 ADD MSTORE DUP3 PUSH1 0x40 DUP3 ADD MSTORE PUSH1 0x0 DUP4 DUP3 ADD MSTORE DUP3 PUSH1 0x80 DUP3 ADD MSTORE DUP3 PUSH1 0xA0 DUP3 ADD MSTORE DUP3 PUSH1 0xC0 DUP3 ADD MSTORE ADD MSTORE AND PUSH1 0x0 MSTORE PUSH1 0x1 PUSH1 0x20 MSTORE PUSH1 0x40 PUSH1 0x0 KECCAK256 PUSH1 0x40 MLOAD SWAP1 PUSH2 0x279 DUP3 PUSH2 0x28F2 JUMP JUMPDEST PUSH11 0xFFFFFFFFFFFFFFFFFFFFFF DUP2 SLOAD PUSH1 0xFF DUP2 AND ISZERO ISZERO DUP5 MSTORE PUSH1 0x8 SHR AND PUSH1 0x20 DUP4 ADD MSTORE PUSH1 0x1 DUP2 ADD PUSH1 0x40 MLOAD SWAP1 DUP2 PUSH1 0x0 DUP3 SLOAD SWAP3 PUSH2 0x2AF DUP5 PUSH2 0x2B8C JUMP JUMPDEST DUP1 DUP5 MSTORE SWAP4 PUSH1 0x1 DUP2 AND SWAP1 DUP2 ISZERO PUSH2 0x559 JUMPI POP PUSH1 0x1 EQ PUSH2 0x512 JUMPI JUMPDEST POP PUSH2 0x2D4 SWAP3 POP SUB DUP3 PUSH2 0x292B JUMP JUMPDEST PUSH1 0x40 DUP4 ADD MSTORE PUSH20 0xFFFFFFFFFFFFFFFFFFFFFFFFFFFFFFFFFFFFFFFF PUSH1 0x2 DUP3 ADD SLOAD AND PUSH1 0x60 DUP4 ADD MSTORE PUSH1 0x3 DUP2 ADD PUSH1 0x40 MLOAD DUP1 DUP3 PUSH1 0x20 DUP3 SWAP5 SLOAD SWAP4 DUP5 DUP2 MSTORE ADD SWAP1 PUSH1 0x0 MSTORE PUSH1 0x20 PUSH1 0x0 KECCAK256 SWAP3 PUSH1 0x0 JUMPDEST DUP2 DUP2 LT PUSH2 0x4E3 JUMPI POP POP PUSH2 0x32E SWAP3 POP SUB DUP3 PUSH2 0x292B JUMP JUMPDEST PUSH1 0x80 DUP4 ADD MSTORE PUSH2 0x33F PUSH1 0x4 DUP3 ADD PUSH2 0x2BDF JUMP JUMPDEST PUSH1 0xA0 DUP4 ADD MSTORE PUSH1 0x5 DUP2 ADD PUSH1 0x40 MLOAD SWAP1 DUP2 PUSH1 0x20 DUP3 SLOAD SWAP2 DUP3 DUP2 MSTORE ADD SWAP2 PUSH1 0x0 MSTORE PUSH1 0x20 PUSH1 0x0 KECCAK256 SWAP1 PUSH1 0x0 JUMPDEST DUP2 DUP2 LT PUSH2 0x4B7 JUMPI DUP7 PUSH2 0x389 PUSH1 0x6 DUP9 DUP9 PUSH2 0x37E DUP2 DUP11 SUB DUP3 PUSH2 0x292B JUMP JUMPDEST PUSH1 0xC0 DUP6 ADD MSTORE ADD PUSH2 0x2BDF JUMP JUMPDEST PUSH1 0xE0 DUP3 ADD MSTORE PUSH1 0x40 MLOAD PUSH1 0x20 DUP2 MSTORE DUP2 MLOAD ISZERO ISZERO PUSH1 0x20 DUP3 ADD MSTORE PUSH11 0xFFFFFFFFFFFFFFFFFFFFFF PUSH1 0x20 DUP4 ADD MLOAD AND PUSH1 0x40 DUP3 ADD MSTORE PUSH1 0x40 DUP3 ADD MLOAD PUSH2 0x3D2 PUSH2 0x100 SWAP2 DUP3 PUSH1 0x60 DUP6 ADD MSTORE PUSH2 0x120 DUP5 ADD SWAP1 PUSH2 0x298F JUMP JUMPDEST SWAP1 PUSH20 0xFFFFFFFFFFFFFFFFFFFFFFFFFFFFFFFFFFFFFFFF PUSH1 0x60 DUP6 ADD MLOAD AND PUSH1 0x80 DUP5 ADD MSTORE PUSH2 0x444 PUSH2 0x430 PUSH1 0x80 DUP7 ADD MLOAD SWAP4 PUSH32 0xFFFFFFFFFFFFFFFFFFFFFFFFFFFFFFFFFFFFFFFFFFFFFFFFFFFFFFFFFFFFFFE0 SWAP5 DUP6 DUP8 DUP4 SUB ADD PUSH1 0xA0 DUP9 ADD MSTORE PUSH2 0x2A29 JUMP JUMPDEST PUSH1 0xA0 DUP7 ADD MLOAD DUP5 DUP7 DUP4 SUB ADD PUSH1 0xC0 DUP8 ADD MSTORE PUSH2 0x29F5 JUMP JUMPDEST SWAP4 PUSH1 0xC0 DUP2 ADD MLOAD SWAP5 DUP4 DUP6 DUP3 SUB ADD PUSH1 0xE0 DUP7 ADD MSTORE PUSH1 0x20 DUP1 DUP8 MLOAD SWAP3 DUP4 DUP2 MSTORE ADD SWAP7 ADD SWAP1 PUSH1 0x0 JUMPDEST DUP2 DUP2 LT PUSH2 0x48B JUMPI DUP7 DUP1 PUSH2 0x487 DUP11 DUP10 DUP10 PUSH1 0xE0 DUP11 ADD MLOAD SWAP2 DUP6 DUP5 SUB ADD SWAP1 DUP6 ADD MSTORE PUSH2 0x29F5 JUMP JUMPDEST SUB SWAP1 RETURN JUMPDEST DUP3 MLOAD PUSH20 0xFFFFFFFFFFFFFFFFFFFFFFFFFFFFFFFFFFFFFFFF AND DUP9 MSTORE PUSH1 0x20 SWAP8 DUP9 ADD SWAP8 SWAP1 SWAP3 ADD SWAP2 PUSH1 0x1 ADD PUSH2 0x465 JUMP JUMPDEST DUP3 SLOAD PUSH20 0xFFFFFFFFFFFFFFFFFFFFFFFFFFFFFFFFFFFFFFFF AND DUP5 MSTORE PUSH1 0x20 SWAP1 SWAP4 ADD SWAP3 PUSH1 0x1 SWAP3 DUP4 ADD SWAP3 ADD PUSH2 0x363 JUMP JUMPDEST DUP5 SLOAD PUSH20 0xFFFFFFFFFFFFFFFFFFFFFFFFFFFFFFFFFFFFFFFF AND DUP4 MSTORE PUSH1 0x1 SWAP5 DUP6 ADD SWAP5 DUP7 SWAP5 POP PUSH1 0x20 SWAP1 SWAP4 ADD SWAP3 ADD PUSH2 0x319 JUMP JUMPDEST SWAP1 POP PUSH1 0x0 SWAP3 SWAP2 SWAP3 MSTORE PUSH1 0x20 PUSH1 0x0 KECCAK256 SWAP1 PUSH1 0x0 SWAP2 JUMPDEST DUP2 DUP4 LT PUSH2 0x53D JUMPI POP POP SWAP1 PUSH1 0x20 PUSH2 0x2D4 SWAP3 DUP3 ADD ADD DUP7 PUSH2 0x2C7 JUMP JUMPDEST PUSH1 0x20 SWAP2 SWAP4 POP DUP1 PUSH1 0x1 SWAP2 SLOAD DUP4 DUP6 DUP9 ADD ADD MSTORE ADD SWAP2 ADD SWAP1 SWAP2 DUP4 SWAP3 PUSH2 0x524 JUMP JUMPDEST PUSH1 0x20 SWAP4 POP PUSH2 0x2D4 SWAP6 SWAP3 POP PUSH32 0xFFFFFFFFFFFFFFFFFFFFFFFFFFFFFFFFFFFFFFFFFFFFFFFFFFFFFFFFFFFFFF00 SWAP2 POP AND DUP3 DUP5 ADD MSTORE ISZERO ISZERO PUSH1 0x5 SHL DUP3 ADD ADD DUP7 PUSH2 0x2C7 JUMP JUMPDEST CALLVALUE PUSH2 0x163 JUMPI PUSH1 0x0 PUSH32 0xFFFFFFFFFFFFFFFFFFFFFFFFFFFFFFFFFFFFFFFFFFFFFFFFFFFFFFFFFFFFFFFC CALLDATASIZE ADD SLT PUSH2 0x163 JUMPI PUSH1 0x20 PUSH1 0x40 MLOAD PUSH4 0x1E13380 DUP2 MSTORE RETURN JUMPDEST CALLVALUE PUSH2 0x163 JUMPI PUSH1 0x20 PUSH32 0xFFFFFFFFFFFFFFFFFFFFFFFFFFFFFFFFFFFFFFFFFFFFFFFFFFFFFFFFFFFFFFFC CALLDATASIZE ADD SLT PUSH2 0x163 JUMPI PUSH1 0x4 CALLDATALOAD PUSH1 0x2 SLOAD DUP2 LT ISZERO PUSH2 0x163 JUMPI PUSH20 0xFFFFFFFFFFFFFFFFFFFFFFFFFFFFFFFFFFFFFFFF PUSH1 0x20 SWAP2 PUSH1 0x2 PUSH1 0x0 MSTORE PUSH32 0x405787FA12A823E0F2B7631CC41B3BA8828B3321CA811111FA75CD3AA3BB5ACE ADD SLOAD AND PUSH1 0x40 MLOAD SWAP1 DUP2 MSTORE RETURN JUMPDEST CALLVALUE PUSH2 0x163 JUMPI PUSH1 0x0 PUSH32 0xFFFFFFFFFFFFFFFFFFFFFFFFFFFFFFFFFFFFFFFFFFFFFFFFFFFFFFFFFFFFFFFC CALLDATASIZE ADD SLT PUSH2 0x163 JUMPI PUSH1 0x20 PUSH2 0x6EF PUSH2 0x6B8 PUSH32 0x0 PUSH2 0x2ACC JUMP JUMPDEST PUSH2 0x6E9 PUSH2 0x6E4 PUSH32 0x0 PUSH2 0x2C69 JUMP JUMPDEST PUSH2 0x2C7A JUMP JUMPDEST SWAP1 PUSH2 0x2C30 JUMP JUMPDEST PUSH1 0x40 MLOAD SWAP1 DUP2 MSTORE RETURN JUMPDEST CALLVALUE PUSH2 0x163 JUMPI PUSH1 0x0 PUSH32 0xFFFFFFFFFFFFFFFFFFFFFFFFFFFFFFFFFFFFFFFFFFFFFFFFFFFFFFFFFFFFFFFC CALLDATASIZE ADD SLT PUSH2 0x163 JUMPI PUSH1 0x20 PUSH11 0xFFFFFFFFFFFFFFFFFFFFFF PUSH1 0x2 SLOAD AND PUSH1 0x40 MLOAD SWAP1 DUP2 MSTORE RETURN JUMPDEST CALLVALUE PUSH2 0x163 JUMPI PUSH1 0x0 PUSH32 0xFFFFFFFFFFFFFFFFFFFFFFFFFFFFFFFFFFFFFFFFFFFFFFFFFFFFFFFFFFFFFFFC CALLDATASIZE ADD SLT PUSH2 0x163 JUMPI PUSH2 0x487 PUSH1 0x40 MLOAD PUSH2 0x77E DUP2 PUSH2 0x290F JUMP JUMPDEST PUSH1 0x9 DUP2 MSTORE PUSH32 0x4379674E6562756C610000000000000000000000000000000000000000000000 PUSH1 0x20 DUP3 ADD MSTORE PUSH1 0x40 MLOAD SWAP2 DUP3 SWAP2 PUSH1 0x20 DUP4 MSTORE PUSH1 0x20 DUP4 ADD SWAP1 PUSH2 0x298F JUMP JUMPDEST CALLVALUE PUSH2 0x163 JUMPI PUSH1 0x0 PUSH32 0xFFFFFFFFFFFFFFFFFFFFFFFFFFFFFFFFFFFFFFFFFFFFFFFFFFFFFFFFFFFFFFFC CALLDATASIZE ADD SLT PUSH2 0x163 JUMPI PUSH1 0x20 PUSH1 0x40 MLOAD PUSH20 0xFFFFFFFFFFFFFFFFFFFFFFFFFFFFFFFFFFFFFFFF PUSH32 0x0 AND DUP2 MSTORE RETURN JUMPDEST CALLVALUE PUSH2 0x163 JUMPI PUSH1 0x0 PUSH32 0xFFFFFFFFFFFFFFFFFFFFFFFFFFFFFFFFFFFFFFFFFFFFFFFFFFFFFFFFFFFFFFFC CALLDATASIZE ADD SLT PUSH2 0x163 JUMPI PUSH1 0x20 PUSH1 0x40 MLOAD PUSH1 0x8 DUP2 MSTORE RETURN JUMPDEST CALLVALUE PUSH2 0x163 JUMPI PUSH1 0x20 PUSH32 0xFFFFFFFFFFFFFFFFFFFFFFFFFFFFFFFFFFFFFFFFFFFFFFFFFFFFFFFFFFFFFFFC CALLDATASIZE ADD SLT PUSH2 0x163 JUMPI PUSH2 0x89C PUSH2 0x29D2 JUMP JUMPDEST PUSH1 0x0 SLOAD PUSH1 0xFF DUP2 AND ISZERO PUSH2 0x9B3 JUMPI PUSH32 0xFFFFFFFFFFFFFFFFFFFFFFFFFFFFFFFFFFFFFFFFFFFFFFFFFFFFFFFFFFFFFF00 AND DUP1 PUSH1 0x0 SSTORE PUSH2 0x8D6 PUSH2 0x2DA7 JUMP JUMPDEST PUSH1 0x4 SLOAD SWAP2 PUSH20 0xFFFFFFFFFFFFFFFFFFFFFFFFFFFFFFFFFFFFFFFF DUP1 DUP3 AND SWAP4 DUP2 DUP2 AND DUP6 EQ PUSH2 0x982 JUMPI PUSH32 0xFFFFFFFFFFFFFFFFFFFFFFFF0000000000000000000000000000000000000000 AND SWAP1 SWAP4 OR PUSH1 0x4 SSTORE PUSH1 0x3 SLOAD PUSH1 0x40 DUP1 MLOAD PUSH20 0xFFFFFFFFFFFFFFFFFFFFFFFFFFFFFFFFFFFFFFFF SWAP3 SWAP1 SWAP6 AND DUP3 AND DUP6 MSTORE SWAP2 AND PUSH1 0x20 DUP5 ADD MSTORE PUSH1 0x1 SWAP3 PUSH32 0xDDC205EECBCB9FD6100D787269A63285115C1E35297B5CD128AA171376B7622 SWAP2 DUP2 SWAP1 DUP2 ADD JUMPDEST SUB SWAP1 LOG1 OR PUSH1 0x0 SSTORE STOP JUMPDEST PUSH1 0x24 DUP6 PUSH1 0x40 MLOAD SWAP1 PUSH32 0x3181DF5200000000000000000000000000000000000000000000000000000000 DUP3 MSTORE PUSH1 0x4 DUP3 ADD MSTORE REVERT JUMPDEST PUSH1 0x4 PUSH1 0x40 MLOAD PUSH32 0x37ED32E800000000000000000000000000000000000000000000000000000000 DUP2 MSTORE REVERT JUMPDEST CALLVALUE PUSH2 0x163 JUMPI PUSH1 0x0 PUSH32 0xFFFFFFFFFFFFFFFFFFFFFFFFFFFFFFFFFFFFFFFFFFFFFFFFFFFFFFFFFFFFFFFC CALLDATASIZE ADD SLT PUSH2 0x163 JUMPI PUSH1 0x0 SLOAD PUSH1 0xFF DUP2 AND ISZERO PUSH2 0x9B3 JUMPI PUSH32 0xFFFFFFFFFFFFFFFFFFFFFFFFFFFFFFFFFFFFFFFFFFFFFFFFFFFFFFFFFFFFFF00 AND DUP1 PUSH1 0x0 SSTORE PUSH2 0xA46 PUSH2 0x2DA7 JUMP JUMPDEST PUSH1 0x4 SLOAD SWAP1 PUSH20 0xFFFFFFFFFFFFFFFFFFFFFFFFFFFFFFFFFFFFFFFF DUP1 DUP4 AND SWAP3 DUP4 ISZERO PUSH2 0xAF2 JUMPI PUSH1 0x3 DUP1 SLOAD PUSH32 0xFFFFFFFFFFFFFFFFFFFFFFFF0000000000000000000000000000000000000000 DUP1 DUP3 AND DUP8 OR SWAP1 SWAP3 SSTORE SWAP2 AND PUSH1 0x4 SSTORE PUSH1 0x40 DUP1 MLOAD PUSH20 0xFFFFFFFFFFFFFFFFFFFFFFFFFFFFFFFFFFFFFFFF SWAP3 SWAP1 SWAP4 AND DUP3 AND DUP4 MSTORE SWAP4 AND PUSH1 0x20 DUP3 ADD MSTORE PUSH1 0x1 SWAP3 PUSH32 0x5D79527E1742E3CB9A668B777100775A1648A5A8ADEA9C578D164DD2D0908AAC SWAP2 SWAP1 DUP2 SWAP1 DUP2 ADD PUSH2 0x979 JUMP JUMPDEST PUSH1 0x24 DUP5 PUSH1 0x40 MLOAD SWAP1 PUSH32 0xB964881700000000000000000000000000000000000000000000000000000000 DUP3 MSTORE PUSH1 0x4 DUP3 ADD MSTORE REVERT JUMPDEST CALLVALUE PUSH2 0x163 JUMPI PUSH1 0x40 PUSH32 0xFFFFFFFFFFFFFFFFFFFFFFFFFFFFFFFFFFFFFFFFFFFFFFFFFFFFFFFFFFFFFFFC CALLDATASIZE ADD SLT PUSH2 0x163 JUMPI PUSH2 0xB5A PUSH2 0x29D2 JUMP JUMPDEST PUSH8 0xFFFFFFFFFFFFFFFF PUSH1 0x24 CALLDATALOAD GT PUSH2 0x163 JUMPI CALLDATASIZE PUSH1 0x23 PUSH1 0x24 CALLDATALOAD ADD SLT ISZERO PUSH2 0x163 JUMPI PUSH8 0xFFFFFFFFFFFFFFFF PUSH1 0x24 CALLDATALOAD PUSH1 0x4 ADD CALLDATALOAD GT PUSH2 0x163 JUMPI CALLDATASIZE PUSH1 0x24 DUP1 CALLDATALOAD PUSH1 0x4 ADD CALLDATALOAD PUSH1 0x5 SHL DUP2 CALLDATALOAD ADD ADD GT PUSH2 0x163 JUMPI PUSH1 0x0 SLOAD PUSH1 0xFF DUP2 AND ISZERO PUSH2 0x9B3 JUMPI PUSH32 0xFFFFFFFFFFFFFFFFFFFFFFFFFFFFFFFFFFFFFFFFFFFFFFFFFFFFFFFFFFFFFF00 AND PUSH1 0x0 SSTORE PUSH2 0xBDB PUSH2 0x2DA7 JUMP JUMPDEST PUSH20 0xFFFFFFFFFFFFFFFFFFFFFFFFFFFFFFFFFFFFFFFF DUP2 AND PUSH1 0x0 MSTORE PUSH1 0x1 PUSH1 0x20 MSTORE PUSH1 0x40 PUSH1 0x0 KECCAK256 SWAP1 DUP2 SLOAD SWAP2 PUSH1 0xFF DUP4 AND PUSH2 0x1699 JUMPI PUSH1 0x40 MLOAD PUSH32 0x38FFF2D000000000000000000000000000000000000000000000000000000000 DUP2 MSTORE PUSH1 0x20 DUP2 PUSH1 0x4 DUP2 PUSH20 0xFFFFFFFFFFFFFFFFFFFFFFFFFFFFFFFFFFFFFFFF DUP8 AND GAS STATICCALL SWAP1 DUP2 ISZERO PUSH2 0x13BF JUMPI PUSH1 0x0 SWAP2 PUSH2 0x1667 JUMPI JUMPDEST POP PUSH1 0x40 MLOAD SWAP1 PUSH32 0xF94D466800000000000000000000000000000000000000000000000000000000 DUP3 MSTORE PUSH1 0x4 DUP3 ADD MSTORE PUSH1 0x0 DUP2 PUSH1 0x24 DUP2 PUSH20 0xBA12222222228D8BA445958A75A0704D566BF2C8 GAS STATICCALL SWAP1 DUP2 ISZERO PUSH2 0x13BF JUMPI PUSH1 0x0 SWAP2 PUSH2 0x1510 JUMPI JUMPDEST POP PUSH2 0xCC8 PUSH1 0x24 CALLDATALOAD PUSH1 0x4 ADD CALLDATALOAD PUSH2 0x2CE4 JUMP JUMPDEST SWAP2 PUSH2 0xCD8 PUSH1 0x24 CALLDATALOAD PUSH1 0x4 ADD CALLDATALOAD PUSH2 0x2CE4 JUMP JUMPDEST SWAP5 PUSH1 0x0 JUMPDEST PUSH1 0x24 CALLDATALOAD PUSH1 0x4 ADD CALLDATALOAD DUP2 LT PUSH2 0x13CB JUMPI POP PUSH32 0xFFFFFFFFFFFFFFFFFFFFFFFFFFFFFFFFFFFFFFFF0000000000000000000000FF PUSH12 0xFFFFFFFFFFFFFFFFFFFFFF00 PUSH1 0x2 SLOAD PUSH1 0x8 SHL AND SWAP2 AND OR DUP2 SSTORE PUSH1 0x40 MLOAD PUSH32 0x6FDDE0300000000000000000000000000000000000000000000000000000000 DUP2 MSTORE PUSH1 0x0 DUP2 PUSH1 0x4 DUP2 PUSH20 0xFFFFFFFFFFFFFFFFFFFFFFFFFFFFFFFFFFFFFFFF DUP10 AND GAS STATICCALL SWAP1 DUP2 ISZERO PUSH2 0x13BF JUMPI PUSH1 0x0 SWAP2 PUSH2 0x1317 JUMPI JUMPDEST POP DUP1 MLOAD SWAP1 PUSH8 0xFFFFFFFFFFFFFFFF DUP3 GT PUSH2 0x1164 JUMPI DUP2 SWAP1 PUSH2 0xD9A PUSH1 0x1 DUP6 ADD SLOAD PUSH2 0x2B8C JUMP JUMPDEST PUSH1 0x1F DUP2 GT PUSH2 0x12D7 JUMPI JUMPDEST POP PUSH1 0x20 SWAP1 PUSH1 0x1F DUP4 GT PUSH1 0x1 EQ PUSH2 0x120B JUMPI PUSH1 0x0 SWAP3 PUSH2 0x1200 JUMPI JUMPDEST POP POP PUSH32 0xFFFFFFFFFFFFFFFFFFFFFFFFFFFFFFFFFFFFFFFFFFFFFFFFFFFFFFFFFFFFFFFF DUP3 PUSH1 0x1 SHL SWAP3 PUSH1 0x3 SHL SHR NOT AND OR PUSH1 0x1 DUP3 ADD SSTORE JUMPDEST PUSH1 0x2 DUP2 ADD PUSH20 0xFFFFFFFFFFFFFFFFFFFFFFFFFFFFFFFFFFFFFFFF DUP6 AND PUSH32 0xFFFFFFFFFFFFFFFFFFFFFFFF0000000000000000000000000000000000000000 DUP3 SLOAD AND OR SWAP1 SSTORE DUP2 MLOAD PUSH8 0xFFFFFFFFFFFFFFFF DUP2 GT PUSH2 0x1164 JUMPI PUSH9 0x10000000000000000 DUP2 GT PUSH2 0x1164 JUMPI PUSH1 0x3 DUP3 ADD PUSH2 0xE65 DUP3 DUP3 SLOAD DUP2 DUP5 SSTORE DUP4 PUSH2 0x2D84 JUMP JUMPDEST PUSH1 0x20 DUP5 ADD SWAP1 PUSH1 0x0 MSTORE PUSH1 0x20 PUSH1 0x0 KECCAK256 PUSH1 0x0 JUMPDEST DUP4 DUP2 LT PUSH2 0x11D6 JUMPI POP POP POP POP DUP3 MLOAD PUSH8 0xFFFFFFFFFFFFFFFF DUP2 GT PUSH2 0x1164 JUMPI PUSH9 0x10000000000000000 DUP2 GT PUSH2 0x1164 JUMPI PUSH1 0x4 DUP3 ADD PUSH2 0xEB4 DUP3 DUP3 SLOAD DUP2 DUP5 SSTORE DUP4 PUSH2 0x2D84 JUMP JUMPDEST PUSH1 0x20 DUP6 ADD SWAP1 PUSH1 0x0 MSTORE PUSH1 0x20 PUSH1 0x0 KECCAK256 PUSH1 0x0 JUMPDEST DUP4 DUP2 LT PUSH2 0x11C2 JUMPI POP POP POP POP PUSH9 0x10000000000000000 PUSH1 0x24 CALLDATALOAD PUSH1 0x4 ADD CALLDATALOAD GT PUSH2 0x1164 JUMPI PUSH1 0x5 DUP2 ADD DUP1 SLOAD PUSH1 0x4 PUSH1 0x24 CALLDATALOAD ADD CALLDATALOAD DUP1 DUP4 SSTORE PUSH2 0xF01 SWAP3 SWAP1 SWAP2 SWAP1 PUSH2 0x2D84 JUMP JUMPDEST PUSH1 0x24 DUP1 CALLDATALOAD ADD SWAP3 DUP4 PUSH1 0x5 DUP4 ADD PUSH1 0x0 MSTORE PUSH1 0x20 PUSH1 0x0 KECCAK256 SWAP1 PUSH1 0x0 JUMPDEST PUSH1 0x24 CALLDATALOAD PUSH1 0x4 ADD CALLDATALOAD DUP2 LT PUSH2 0x11A7 JUMPI POP POP POP DUP6 MLOAD PUSH8 0xFFFFFFFFFFFFFFFF DUP2 GT PUSH2 0x1164 JUMPI PUSH9 0x10000000000000000 DUP2 GT PUSH2 0x1164 JUMPI PUSH1 0x6 DUP4 ADD PUSH2 0xF5C DUP3 DUP3 SLOAD DUP2 DUP5 SSTORE DUP4 PUSH2 0x2D84 JUMP JUMPDEST PUSH1 0x20 DUP9 ADD SWAP1 PUSH1 0x0 MSTORE PUSH1 0x20 PUSH1 0x0 KECCAK256 PUSH1 0x0 JUMPDEST DUP4 DUP2 LT PUSH2 0x1193 JUMPI POP POP POP POP PUSH1 0x1 PUSH32 0xFFFFFFFFFFFFFFFFFFFFFFFFFFFFFFFFFFFFFFFFFFFFFFFFFFFFFFFFFFFFFF00 DUP4 SLOAD AND OR DUP3 SSTORE PUSH1 0x2 SLOAD PUSH9 0x10000000000000000 DUP2 LT ISZERO PUSH2 0x1164 JUMPI PUSH1 0x1 DUP2 ADD DUP1 PUSH1 0x2 SSTORE DUP2 LT ISZERO PUSH2 0x1135 JUMPI PUSH1 0x20 SWAP4 PUSH20 0xFFFFFFFFFFFFFFFFFFFFFFFFFFFFFFFFFFFFFFFF PUSH11 0xFFFFFFFFFFFFFFFFFFFFFF PUSH2 0x1077 SWAP6 PUSH2 0x1069 SWAP5 PUSH1 0x2 PUSH1 0x0 MSTORE PUSH32 0x405787FA12A823E0F2B7631CC41B3BA8828B3321CA811111FA75CD3AA3BB5ACE ADD DUP4 DUP12 AND PUSH32 0xFFFFFFFFFFFFFFFFFFFFFFFF0000000000000000000000000000000000000000 DUP3 SLOAD AND OR SWAP1 SSTORE SLOAD PUSH1 0x8 SHR AND SWAP8 PUSH1 0x40 MLOAD SWAP9 PUSH1 0x1 DUP11 MSTORE DUP8 DUP11 ADD MSTORE AND PUSH1 0x40 DUP9 ADD MSTORE PUSH1 0xE0 PUSH1 0x60 DUP9 ADD MSTORE PUSH1 0xE0 DUP8 ADD SWAP1 PUSH2 0x2A29 JUMP JUMPDEST SWAP1 DUP6 DUP3 SUB PUSH1 0x80 DUP8 ADD MSTORE PUSH2 0x29F5 JUMP JUMPDEST DUP4 DUP2 SUB PUSH1 0xA0 DUP6 ADD MSTORE PUSH1 0x24 CALLDATALOAD PUSH1 0x4 ADD CALLDATALOAD DUP2 MSTORE ADD SWAP1 PUSH1 0x0 JUMPDEST PUSH1 0x24 CALLDATALOAD PUSH1 0x4 ADD CALLDATALOAD DUP2 LT PUSH2 0x10FF JUMPI PUSH32 0xA10F24181361EAB11F2968F6620BFBAA4E57629872406F8629EFD8D295586B94 DUP5 DUP1 PUSH2 0x10CF DUP7 DUP10 DUP4 DUP3 SUB PUSH1 0xC0 DUP6 ADD MSTORE PUSH2 0x29F5 JUMP JUMPDEST SUB SWAP1 LOG1 PUSH1 0x0 DUP1 SLOAD PUSH32 0xFFFFFFFFFFFFFFFFFFFFFFFFFFFFFFFFFFFFFFFFFFFFFFFFFFFFFFFFFFFFFF00 AND PUSH1 0x1 OR SWAP1 SSTORE STOP JUMPDEST SWAP1 SWAP2 DUP3 CALLDATALOAD SWAP1 PUSH20 0xFFFFFFFFFFFFFFFFFFFFFFFFFFFFFFFFFFFFFFFF DUP3 AND DUP1 SWAP3 SUB PUSH2 0x163 JUMPI PUSH1 0x20 DUP2 PUSH1 0x1 SWAP4 DUP3 SWAP4 MSTORE ADD SWAP4 ADD SWAP2 ADD PUSH2 0x108D JUMP JUMPDEST PUSH32 0x4E487B7100000000000000000000000000000000000000000000000000000000 PUSH1 0x0 MSTORE PUSH1 0x32 PUSH1 0x4 MSTORE PUSH1 0x24 PUSH1 0x0 REVERT JUMPDEST PUSH32 0x4E487B7100000000000000000000000000000000000000000000000000000000 PUSH1 0x0 MSTORE PUSH1 0x41 PUSH1 0x4 MSTORE PUSH1 0x24 PUSH1 0x0 REVERT JUMPDEST PUSH1 0x1 SWAP1 PUSH1 0x20 DUP5 MLOAD SWAP5 ADD SWAP4 DUP2 DUP5 ADD SSTORE ADD PUSH2 0xF6C JUMP JUMPDEST PUSH1 0x1 SWAP1 PUSH1 0x20 PUSH2 0x11B5 DUP5 PUSH2 0x2D4C JUMP JUMPDEST SWAP4 ADD SWAP3 DUP2 DUP6 ADD SSTORE ADD PUSH2 0xF18 JUMP JUMPDEST PUSH1 0x1 SWAP1 PUSH1 0x20 DUP5 MLOAD SWAP5 ADD SWAP4 DUP2 DUP5 ADD SSTORE ADD PUSH2 0xEC4 JUMP JUMPDEST PUSH1 0x1 SWAP1 PUSH1 0x20 PUSH20 0xFFFFFFFFFFFFFFFFFFFFFFFFFFFFFFFFFFFFFFFF DUP6 MLOAD AND SWAP5 ADD SWAP4 DUP2 DUP5 ADD SSTORE ADD PUSH2 0xE75 JUMP JUMPDEST ADD MLOAD SWAP1 POP DUP8 DUP1 PUSH2 0xDBA JUMP JUMPDEST SWAP3 POP PUSH1 0x1 DUP5 ADD PUSH1 0x0 MSTORE PUSH1 0x20 PUSH1 0x0 KECCAK256 SWAP1 PUSH1 0x0 SWAP4 JUMPDEST PUSH32 0xFFFFFFFFFFFFFFFFFFFFFFFFFFFFFFFFFFFFFFFFFFFFFFFFFFFFFFFFFFFFFFE0 DUP5 AND DUP6 LT PUSH2 0x12BC JUMPI PUSH1 0x1 SWAP5 POP DUP4 PUSH32 0xFFFFFFFFFFFFFFFFFFFFFFFFFFFFFFFFFFFFFFFFFFFFFFFFFFFFFFFFFFFFFFE0 DUP2 AND LT PUSH2 0x1285 JUMPI JUMPDEST POP POP POP DUP2 SHL ADD PUSH1 0x1 DUP3 ADD SSTORE PUSH2 0xDEF JUMP JUMPDEST ADD MLOAD PUSH32 0xFFFFFFFFFFFFFFFFFFFFFFFFFFFFFFFFFFFFFFFFFFFFFFFFFFFFFFFFFFFFFFFF PUSH1 0xF8 DUP5 PUSH1 0x3 SHL AND SHR NOT AND SWAP1 SSTORE DUP8 DUP1 DUP1 PUSH2 0x1275 JUMP JUMPDEST DUP2 DUP2 ADD MLOAD DUP4 SSTORE PUSH1 0x20 SWAP5 DUP6 ADD SWAP5 PUSH1 0x1 SWAP1 SWAP4 ADD SWAP3 SWAP1 SWAP2 ADD SWAP1 PUSH2 0x121E JUMP JUMPDEST PUSH2 0x1307 SWAP1 PUSH1 0x1 DUP7 ADD PUSH1 0x0 MSTORE PUSH1 0x20 PUSH1 0x0 KECCAK256 PUSH1 0x1F DUP6 ADD PUSH1 0x5 SHR DUP2 ADD SWAP2 PUSH1 0x20 DUP7 LT PUSH2 0x130D JUMPI JUMPDEST PUSH1 0x1F ADD PUSH1 0x5 SHR ADD SWAP1 PUSH2 0x2D6D JUMP JUMPDEST DUP9 PUSH2 0xDA3 JUMP JUMPDEST SWAP1 SWAP2 POP DUP2 SWAP1 PUSH2 0x12FA JUMP JUMPDEST SWAP1 POP RETURNDATASIZE DUP1 PUSH1 0x0 DUP4 RETURNDATACOPY PUSH2 0x1329 DUP2 DUP4 PUSH2 0x292B JUMP JUMPDEST DUP2 ADD SWAP1 PUSH1 0x20 DUP2 DUP4 SUB SLT PUSH2 0x163 JUMPI DUP1 MLOAD SWAP1 PUSH8 0xFFFFFFFFFFFFFFFF DUP3 GT PUSH2 0x163 JUMPI ADD DUP2 PUSH1 0x1F DUP3 ADD SLT ISZERO PUSH2 0x163 JUMPI DUP1 MLOAD PUSH8 0xFFFFFFFFFFFFFFFF DUP2 GT PUSH2 0x1164 JUMPI PUSH1 0x40 MLOAD SWAP3 PUSH2 0x139B PUSH1 0x20 PUSH32 0xFFFFFFFFFFFFFFFFFFFFFFFFFFFFFFFFFFFFFFFFFFFFFFFFFFFFFFFFFFFFFFE0 PUSH1 0x1F DUP6 ADD AND ADD DUP6 PUSH2 0x292B JUMP JUMPDEST DUP2 DUP5 MSTORE PUSH1 0x20 DUP3 DUP5 ADD ADD GT PUSH2 0x163 JUMPI PUSH2 0x13B9 SWAP2 PUSH1 0x20 DUP1 DUP6 ADD SWAP2 ADD PUSH2 0x296C JUMP JUMPDEST DUP7 PUSH2 0xD78 JUMP JUMPDEST PUSH1 0x40 MLOAD RETURNDATASIZE PUSH1 0x0 DUP3 RETURNDATACOPY RETURNDATASIZE SWAP1 REVERT JUMPDEST DUP1 PUSH1 0x20 PUSH20 0xFFFFFFFFFFFFFFFFFFFFFFFFFFFFFFFFFFFFFFFF PUSH2 0x13EF PUSH1 0x4 SWAP5 DUP9 PUSH2 0x2CB8 JUMP JUMPDEST MLOAD AND PUSH1 0x40 MLOAD SWAP4 DUP5 DUP1 SWAP3 PUSH32 0x313CE56700000000000000000000000000000000000000000000000000000000 DUP3 MSTORE GAS STATICCALL SWAP2 DUP3 ISZERO PUSH2 0x13BF JUMPI PUSH1 0x4 SWAP3 PUSH1 0xFF SWAP2 PUSH1 0x0 SWAP2 PUSH2 0x14F1 JUMPI JUMPDEST POP AND PUSH2 0x143E DUP3 DUP9 PUSH2 0x2CB8 JUMP JUMPDEST MSTORE PUSH1 0x20 PUSH20 0xFFFFFFFFFFFFFFFFFFFFFFFFFFFFFFFFFFFFFFFF PUSH2 0x1468 PUSH1 0x24 DUP5 PUSH1 0x5 SHL DUP2 CALLDATALOAD ADD ADD PUSH2 0x2D4C JUMP JUMPDEST AND PUSH1 0x40 MLOAD SWAP4 DUP5 DUP1 SWAP3 PUSH32 0x313CE56700000000000000000000000000000000000000000000000000000000 DUP3 MSTORE GAS STATICCALL SWAP2 DUP3 ISZERO PUSH2 0x13BF JUMPI PUSH2 0x14BD SWAP3 PUSH1 0xFF SWAP2 PUSH1 0x0 SWAP2 PUSH2 0x14C2 JUMPI JUMPDEST POP AND PUSH2 0x14B7 DUP3 DUP11 PUSH2 0x2CB8 JUMP JUMPDEST MSTORE PUSH2 0x2C8B JUMP JUMPDEST PUSH2 0xCDC JUMP JUMPDEST PUSH2 0x14E4 SWAP2 POP PUSH1 0x20 RETURNDATASIZE PUSH1 0x20 GT PUSH2 0x14EA JUMPI JUMPDEST PUSH2 0x14DC DUP2 DUP4 PUSH2 0x292B JUMP JUMPDEST DUP2 ADD SWAP1 PUSH2 0x2D33 JUMP JUMPDEST DUP11 PUSH2 0x14AB JUMP JUMPDEST POP RETURNDATASIZE PUSH2 0x14D2 JUMP JUMPDEST PUSH2 0x150A SWAP2 POP PUSH1 0x20 RETURNDATASIZE PUSH1 0x20 GT PUSH2 0x14EA JUMPI PUSH2 0x14DC DUP2 DUP4 PUSH2 0x292B JUMP JUMPDEST DUP11 PUSH2 0x1432 JUMP JUMPDEST RETURNDATASIZE SWAP2 POP DUP2 PUSH1 0x0 DUP3 RETURNDATACOPY PUSH2 0x1522 DUP3 DUP3 PUSH2 0x292B JUMP JUMPDEST PUSH1 0x60 DUP2 DUP4 DUP2 ADD SUB SLT PUSH2 0x163 JUMPI DUP1 MLOAD SWAP2 PUSH8 0xFFFFFFFFFFFFFFFF DUP4 GT PUSH2 0x163 JUMPI DUP1 DUP3 ADD PUSH1 0x1F DUP5 DUP5 ADD ADD SLT ISZERO PUSH2 0x163 JUMPI DUP3 DUP3 ADD MLOAD SWAP3 PUSH2 0x155D DUP5 PUSH2 0x2CCC JUMP JUMPDEST SWAP4 PUSH2 0x156B PUSH1 0x40 MLOAD SWAP6 DUP7 PUSH2 0x292B JUMP JUMPDEST DUP1 DUP6 MSTORE PUSH1 0x20 DUP6 ADD SWAP2 DUP4 DUP6 ADD PUSH1 0x20 DUP4 PUSH1 0x5 SHL DUP4 DUP9 ADD ADD ADD GT PUSH2 0x163 JUMPI SWAP2 PUSH1 0x20 DUP4 DUP7 ADD ADD SWAP3 JUMPDEST PUSH1 0x20 DUP4 PUSH1 0x5 SHL DUP3 DUP9 ADD ADD ADD DUP5 LT PUSH2 0x1634 JUMPI POP POP POP POP PUSH1 0x20 DUP3 ADD MLOAD PUSH8 0xFFFFFFFFFFFFFFFF DUP2 GT PUSH2 0x163 JUMPI DUP2 DUP4 ADD PUSH1 0x1F DUP3 DUP6 ADD ADD SLT ISZERO PUSH2 0x163 JUMPI DUP1 DUP4 ADD MLOAD SWAP3 PUSH1 0x20 PUSH2 0x15D7 DUP6 PUSH2 0x2CCC JUMP JUMPDEST PUSH2 0x15E4 PUSH1 0x40 MLOAD SWAP2 DUP3 PUSH2 0x292B JUMP JUMPDEST DUP6 DUP2 MSTORE ADD SWAP3 DUP2 ADD PUSH1 0x20 DUP6 PUSH1 0x5 SHL DUP5 DUP5 ADD ADD ADD GT PUSH2 0x163 JUMPI DUP1 DUP3 ADD PUSH1 0x20 ADD SWAP3 SWAP2 JUMPDEST PUSH1 0x20 DUP6 PUSH1 0x5 SHL DUP3 DUP5 ADD ADD ADD DUP5 LT PUSH2 0x1620 JUMPI POP POP POP POP POP DUP5 PUSH2 0xCB8 JUMP JUMPDEST PUSH1 0x20 DUP1 DUP1 SWAP5 DUP7 MLOAD DUP2 MSTORE ADD SWAP5 ADD SWAP4 SWAP3 POP PUSH2 0x1604 JUMP JUMPDEST DUP4 MLOAD SWAP2 PUSH20 0xFFFFFFFFFFFFFFFFFFFFFFFFFFFFFFFFFFFFFFFF DUP4 AND DUP4 SUB PUSH2 0x163 JUMPI PUSH1 0x20 DUP2 DUP2 SWAP5 DUP3 SWAP4 MSTORE ADD SWAP5 ADD SWAP4 SWAP2 POP PUSH2 0x158F JUMP JUMPDEST SWAP1 POP PUSH1 0x20 DUP2 RETURNDATASIZE PUSH1 0x20 GT PUSH2 0x1691 JUMPI JUMPDEST DUP2 PUSH2 0x1682 PUSH1 0x20 SWAP4 DUP4 PUSH2 0x292B JUMP JUMPDEST DUP2 ADD SUB SLT PUSH2 0x163 JUMPI MLOAD DUP5 PUSH2 0xC5F JUMP JUMPDEST RETURNDATASIZE SWAP2 POP PUSH2 0x1675 JUMP JUMPDEST PUSH1 0x24 DUP3 PUSH20 0xFFFFFFFFFFFFFFFFFFFFFFFFFFFFFFFFFFFFFFFF PUSH1 0x40 MLOAD SWAP2 PUSH32 0x48A979DC00000000000000000000000000000000000000000000000000000000 DUP4 MSTORE AND PUSH1 0x4 DUP3 ADD MSTORE REVERT JUMPDEST CALLVALUE PUSH2 0x163 JUMPI PUSH1 0x0 PUSH32 0xFFFFFFFFFFFFFFFFFFFFFFFFFFFFFFFFFFFFFFFFFFFFFFFFFFFFFFFFFFFFFFFC CALLDATASIZE ADD SLT PUSH2 0x163 JUMPI PUSH2 0x487 PUSH1 0x40 MLOAD PUSH2 0x171E DUP2 PUSH2 0x290F JUMP JUMPDEST PUSH1 0x5 DUP2 MSTORE PUSH32 0x312E302E30000000000000000000000000000000000000000000000000000000 PUSH1 0x20 DUP3 ADD MSTORE PUSH1 0x40 MLOAD SWAP2 DUP3 SWAP2 PUSH1 0x20 DUP4 MSTORE PUSH1 0x20 DUP4 ADD SWAP1 PUSH2 0x298F JUMP JUMPDEST CALLVALUE PUSH2 0x163 JUMPI PUSH1 0x0 PUSH32 0xFFFFFFFFFFFFFFFFFFFFFFFFFFFFFFFFFFFFFFFFFFFFFFFFFFFFFFFFFFFFFFFC CALLDATASIZE ADD SLT PUSH2 0x163 JUMPI PUSH1 0x20 PUSH1 0x40 MLOAD PUSH20 0xBA12222222228D8BA445958A75A0704D566BF2C8 DUP2 MSTORE RETURN JUMPDEST CALLVALUE PUSH2 0x163 JUMPI PUSH1 0x20 PUSH32 0xFFFFFFFFFFFFFFFFFFFFFFFFFFFFFFFFFFFFFFFFFFFFFFFFFFFFFFFFFFFFFFFC CALLDATASIZE ADD SLT PUSH2 0x163 JUMPI PUSH1 0x20 PUSH2 0x6EF PUSH2 0x17E5 PUSH2 0x29D2 JUMP JUMPDEST PUSH2 0x2ACC JUMP JUMPDEST CALLVALUE PUSH2 0x163 JUMPI PUSH1 0x0 PUSH32 0xFFFFFFFFFFFFFFFFFFFFFFFFFFFFFFFFFFFFFFFFFFFFFFFFFFFFFFFFFFFFFFFC CALLDATASIZE ADD SLT PUSH2 0x163 JUMPI PUSH1 0x20 PUSH1 0x40 MLOAD PUSH1 0xFF PUSH32 0x0 AND DUP2 MSTORE RETURN JUMPDEST CALLVALUE PUSH2 0x163 JUMPI PUSH1 0x0 PUSH32 0xFFFFFFFFFFFFFFFFFFFFFFFFFFFFFFFFFFFFFFFFFFFFFFFFFFFFFFFFFFFFFFFC CALLDATASIZE ADD SLT PUSH2 0x163 JUMPI PUSH1 0x20 PUSH20 0xFFFFFFFFFFFFFFFFFFFFFFFFFFFFFFFFFFFFFFFF PUSH1 0x4 SLOAD AND PUSH1 0x40 MLOAD SWAP1 DUP2 MSTORE RETURN JUMPDEST CALLVALUE PUSH2 0x163 JUMPI PUSH1 0x20 DUP1 PUSH32 0xFFFFFFFFFFFFFFFFFFFFFFFFFFFFFFFFFFFFFFFFFFFFFFFFFFFFFFFFFFFFFFFC CALLDATASIZE ADD SLT PUSH2 0x163 JUMPI PUSH20 0xFFFFFFFFFFFFFFFFFFFFFFFFFFFFFFFFFFFFFFFF SWAP1 DUP2 PUSH2 0x18E7 PUSH2 0x29D2 JUMP JUMPDEST AND DUP1 PUSH1 0x0 MSTORE PUSH1 0x1 DUP3 MSTORE PUSH1 0x40 PUSH1 0x0 KECCAK256 SWAP1 PUSH1 0xFF DUP3 SLOAD AND ISZERO PUSH2 0x19CE JUMPI POP SWAP2 PUSH2 0x192B PUSH32 0x0 PUSH2 0x2ACC JUMP JUMPDEST PUSH1 0x3 DUP5 ADD SLOAD SWAP2 PUSH2 0x193A DUP4 PUSH2 0x2CE4 JUMP JUMPDEST PUSH1 0x5 SWAP1 SWAP6 ADD DUP1 SLOAD PUSH32 0x0 SWAP1 PUSH1 0x0 JUMPDEST DUP7 DUP2 LT PUSH2 0x1980 JUMPI PUSH1 0x40 MLOAD DUP9 DUP2 MSTORE DUP1 PUSH2 0x487 DUP2 DUP12 ADD DUP13 PUSH2 0x29F5 JUMP JUMPDEST DUP2 DUP2 LT ISZERO PUSH2 0x1135 JUMPI PUSH2 0x19C9 SWAP1 DUP5 PUSH1 0x0 MSTORE PUSH2 0x19BF PUSH2 0x19A4 DUP8 DUP4 DUP13 PUSH1 0x0 KECCAK256 ADD SLOAD AND PUSH2 0x2ACC JUMP JUMPDEST PUSH2 0x19B9 PUSH2 0x19B3 PUSH2 0x6E4 DUP9 PUSH2 0x2C69 JUMP JUMPDEST DUP11 PUSH2 0x2A8A JUMP JUMPDEST SWAP1 PUSH2 0x2DF8 JUMP JUMPDEST PUSH2 0x14B7 DUP3 DUP13 PUSH2 0x2CB8 JUMP JUMPDEST PUSH2 0x1966 JUMP JUMPDEST PUSH1 0x24 SWAP1 PUSH1 0x40 MLOAD SWAP1 PUSH32 0xFB642B4D00000000000000000000000000000000000000000000000000000000 DUP3 MSTORE PUSH1 0x4 DUP3 ADD MSTORE REVERT JUMPDEST CALLVALUE PUSH2 0x163 JUMPI PUSH1 0x20 DUP1 PUSH32 0xFFFFFFFFFFFFFFFFFFFFFFFFFFFFFFFFFFFFFFFFFFFFFFFFFFFFFFFFFFFFFFFC CALLDATASIZE ADD SLT PUSH2 0x163 JUMPI PUSH20 0xFFFFFFFFFFFFFFFFFFFFFFFFFFFFFFFFFFFFFFFF SWAP1 DUP2 PUSH2 0x1A4E PUSH2 0x29D2 JUMP JUMPDEST AND SWAP2 DUP3 PUSH1 0x0 MSTORE PUSH1 0x1 SWAP1 DUP2 DUP4 MSTORE PUSH1 0x40 PUSH1 0x0 KECCAK256 PUSH1 0x40 MLOAD SWAP3 PUSH2 0x1A6C DUP5 PUSH2 0x28F2 JUMP JUMPDEST PUSH11 0xFFFFFFFFFFFFFFFFFFFFFF DUP3 SLOAD PUSH1 0xFF DUP2 AND ISZERO ISZERO DUP7 MSTORE PUSH1 0x8 SHR AND DUP6 DUP6 ADD MSTORE DUP1 DUP3 ADD PUSH1 0x40 MLOAD SWAP1 DUP2 PUSH1 0x0 DUP3 SLOAD SWAP3 PUSH2 0x1AA0 DUP5 PUSH2 0x2B8C JUMP JUMPDEST SWAP4 DUP5 DUP5 MSTORE DUP11 DUP8 DUP3 AND SWAP2 DUP3 PUSH1 0x0 EQ PUSH2 0x1E0E JUMPI POP POP PUSH1 0x1 EQ PUSH2 0x1DCD JUMPI JUMPDEST POP PUSH2 0x1AC8 SWAP3 POP SUB DUP3 PUSH2 0x292B JUMP JUMPDEST PUSH1 0x40 DUP6 ADD MSTORE DUP3 PUSH1 0x2 DUP4 ADD SLOAD AND SWAP2 PUSH1 0x60 DUP6 ADD SWAP3 DUP4 MSTORE PUSH1 0x3 DUP2 ADD SWAP5 PUSH1 0x40 MLOAD DUP1 DUP8 DUP10 DUP3 SWAP10 SLOAD SWAP4 DUP5 DUP2 MSTORE ADD SWAP1 PUSH1 0x0 MSTORE DUP10 PUSH1 0x0 KECCAK256 SWAP3 PUSH1 0x0 JUMPDEST DUP8 DUP13 DUP4 DUP4 LT PUSH2 0x1DB6 JUMPI POP POP POP POP PUSH2 0x1B14 SWAP3 POP SUB DUP8 PUSH2 0x292B JUMP JUMPDEST PUSH1 0x80 DUP2 ADD SWAP6 DUP7 MSTORE PUSH2 0x1B27 PUSH1 0x4 DUP4 ADD PUSH2 0x2BDF JUMP JUMPDEST PUSH1 0xA0 DUP3 ADD MSTORE PUSH1 0x5 DUP3 ADD SWAP2 PUSH1 0x40 MLOAD DUP1 SWAP4 DUP5 SWAP2 DUP11 DUP3 SLOAD SWAP2 DUP3 DUP2 MSTORE ADD SWAP2 PUSH1 0x0 MSTORE DUP11 PUSH1 0x0 KECCAK256 SWAP1 PUSH1 0x0 JUMPDEST DUP9 DUP14 DUP4 DUP4 LT PUSH2 0x1D9F JUMPI POP POP POP POP POP SWAP2 PUSH2 0x1B6C PUSH1 0x6 SWAP3 PUSH2 0x1B79 SWAP5 SUB DUP7 PUSH2 0x292B JUMP JUMPDEST PUSH1 0xC0 DUP5 ADD SWAP5 DUP6 MSTORE ADD PUSH2 0x2BDF JUMP JUMPDEST PUSH1 0xE0 DUP3 ADD MSTORE MLOAD ISZERO PUSH2 0x1D6E JUMPI PUSH1 0x4 SWAP6 SWAP7 POP PUSH1 0x40 DUP5 DUP5 MLOAD AND DUP2 MLOAD SWAP8 DUP9 DUP1 SWAP3 PUSH32 0x9B02CDDE00000000000000000000000000000000000000000000000000000000 DUP3 MSTORE GAS STATICCALL SWAP6 DUP7 ISZERO PUSH2 0x13BF JUMPI PUSH1 0x0 SWAP7 PUSH2 0x1D3A JUMPI JUMPDEST POP SWAP2 DUP2 DUP8 SWAP4 PUSH32 0xFFFFFFFFFFFFFFFFFFFFFFFFFFFFFFFFFFFFFFFFFFFFFFFFFFFFFFFFFFFFFFFF SWAP7 SWAP6 SWAP4 SWAP7 SWAP6 PUSH1 0x0 SWAP8 JUMPDEST PUSH2 0x1CDF JUMPI JUMPDEST POP POP POP PUSH1 0x4 SWAP5 POP MLOAD AND PUSH1 0x40 MLOAD SWAP4 DUP5 DUP1 SWAP3 PUSH32 0x18160DDD00000000000000000000000000000000000000000000000000000000 DUP3 MSTORE GAS STATICCALL SWAP2 DUP3 ISZERO PUSH2 0x13BF JUMPI PUSH1 0x0 SWAP3 PUSH2 0x1CAE JUMPI JUMPDEST POP SWAP1 PUSH2 0x6EF SWAP3 PUSH2 0x1C50 SWAP3 PUSH2 0x2EDD JUMP JUMPDEST PUSH2 0x19B9 PUSH2 0x1C7C PUSH32 0x0 PUSH2 0x2ACC JUMP JUMPDEST PUSH2 0x1CA8 PUSH2 0x6E4 PUSH32 0x0 PUSH2 0x2C69 JUMP JUMPDEST SWAP1 PUSH2 0x2A8A JUMP JUMPDEST SWAP2 POP DUP4 DUP3 DUP2 RETURNDATASIZE DUP4 GT PUSH2 0x1CD8 JUMPI JUMPDEST PUSH2 0x1CC5 DUP2 DUP4 PUSH2 0x292B JUMP JUMPDEST DUP2 ADD SUB SLT PUSH2 0x163 JUMPI SWAP1 MLOAD SWAP1 PUSH2 0x6EF PUSH2 0x1C41 JUMP JUMPDEST POP RETURNDATASIZE PUSH2 0x1CBB JUMP JUMPDEST SWAP2 SWAP4 SWAP6 SWAP1 SWAP3 SWAP5 DUP3 MLOAD MLOAD DUP9 LT ISZERO PUSH2 0x1D2F JUMPI POP PUSH2 0x1D1A SWAP1 PUSH2 0x1D0A DUP8 PUSH2 0x1D03 DUP11 DUP8 MLOAD PUSH2 0x2CB8 JUMP JUMPDEST MLOAD AND PUSH2 0x2ACC JUMP JUMPDEST DUP1 DUP3 LT ISZERO PUSH2 0x1D28 JUMPI POP JUMPDEST SWAP7 PUSH2 0x2C8B JUMP JUMPDEST SWAP6 SWAP5 SWAP3 SWAP1 SWAP2 DUP9 SWAP5 SWAP3 DUP3 PUSH2 0x1BF8 JUMP JUMPDEST SWAP1 POP PUSH2 0x1D14 JUMP JUMPDEST SWAP5 SWAP3 DUP2 SWAP7 SWAP5 POP PUSH2 0x1BFD JUMP JUMPDEST SWAP1 SWAP6 POP PUSH1 0x40 DUP2 RETURNDATASIZE PUSH1 0x40 GT PUSH2 0x1D66 JUMPI JUMPDEST DUP2 PUSH2 0x1D56 PUSH1 0x40 SWAP4 DUP4 PUSH2 0x292B JUMP JUMPDEST DUP2 ADD SUB SLT PUSH2 0x163 JUMPI MLOAD SWAP5 DUP8 PUSH2 0x1BC9 JUMP JUMPDEST RETURNDATASIZE SWAP2 POP PUSH2 0x1D49 JUMP JUMPDEST PUSH1 0x24 DUP8 PUSH1 0x40 MLOAD SWAP1 PUSH32 0xFB642B4D00000000000000000000000000000000000000000000000000000000 DUP3 MSTORE PUSH1 0x4 DUP3 ADD MSTORE REVERT JUMPDEST DUP5 SLOAD DUP14 AND DUP7 MSTORE DUP10 SWAP7 POP SWAP1 SWAP5 ADD SWAP4 SWAP3 DUP4 ADD SWAP3 ADD PUSH2 0x1B4C JUMP JUMPDEST DUP7 SLOAD DUP13 AND DUP6 MSTORE SWAP6 DUP2 ADD SWAP6 DUP13 SWAP6 POP SWAP1 SWAP4 ADD SWAP3 ADD PUSH2 0x1AFB JUMP JUMPDEST SWAP2 POP POP PUSH1 0x0 MSTORE DUP2 DUP8 DUP1 PUSH1 0x0 KECCAK256 DUP6 PUSH1 0x0 SWAP2 JUMPDEST DUP6 DUP4 LT PUSH2 0x1DF5 JUMPI POP POP PUSH2 0x1AC8 SWAP4 POP DUP3 ADD ADD DUP11 PUSH2 0x1ABB JUMP JUMPDEST DUP1 SWAP2 SWAP3 SWAP5 POP SLOAD DUP4 DUP6 DUP9 ADD ADD MSTORE ADD SWAP2 ADD DUP9 SWAP1 DUP6 DUP6 SWAP4 PUSH2 0x1DDE JUMP JUMPDEST PUSH32 0xFFFFFFFFFFFFFFFFFFFFFFFFFFFFFFFFFFFFFFFFFFFFFFFFFFFFFFFFFFFFFF00 AND DUP6 DUP3 ADD MSTORE PUSH2 0x1AC8 SWAP6 ISZERO ISZERO PUSH1 0x5 SHL DUP6 ADD ADD SWAP3 POP DUP13 SWAP2 POP PUSH2 0x1ABB SWAP1 POP JUMP JUMPDEST CALLVALUE PUSH2 0x163 JUMPI PUSH1 0x60 PUSH32 0xFFFFFFFFFFFFFFFFFFFFFFFFFFFFFFFFFFFFFFFFFFFFFFFFFFFFFFFFFFFFFFFC CALLDATASIZE ADD SLT PUSH2 0x163 JUMPI PUSH8 0xDE0B6B3A7640000 PUSH8 0x14057B7EF767814F DUP1 DUP3 PUSH2 0x1E9A PUSH1 0x4 CALLDATALOAD PUSH2 0x2F73 JUMP JUMPDEST MUL DIV SWAP2 PUSH1 0x24 SWAP3 DUP3 DUP3 PUSH2 0x1EAC DUP7 CALLDATALOAD PUSH2 0x2F73 JUMP JUMPDEST MUL DIV DUP2 DUP2 SUB SWAP2 DUP2 DUP4 GT PUSH2 0x2812 JUMPI PUSH4 0x1E13380 DUP1 DUP5 MUL SWAP4 DUP5 DIV EQ SWAP2 EQ OR ISZERO PUSH2 0x27E4 JUMPI PUSH2 0x1EDA SWAP1 PUSH1 0x44 CALLDATALOAD SWAP1 PUSH2 0x2C30 JUMP JUMPDEST SWAP2 PUSH9 0x736EA4425C11AC631 DUP4 LT ISZERO PUSH2 0x27B4 JUMPI PUSH8 0x6F05B59D3B20000 SWAP1 DUP3 SWAP4 MUL ADD DIV SWAP1 PUSH9 0xA688906BD8B000000 DUP3 LT ISZERO PUSH2 0x2785 JUMPI DUP1 SWAP2 PUSH1 0x40 SHL DIV SWAP1 PUSH24 0x800000000000000000000000000000000000000000000000 PUSH8 0x8000000000000000 DUP4 AND PUSH2 0x2766 JUMPI JUMPDEST PUSH8 0x4000000000000000 DUP4 AND PUSH2 0x2753 JUMPI JUMPDEST PUSH8 0x2000000000000000 DUP4 AND PUSH2 0x2740 JUMPI JUMPDEST PUSH8 0x1000000000000000 DUP4 AND PUSH2 0x272D JUMPI JUMPDEST PUSH8 0x800000000000000 DUP4 AND PUSH2 0x271A JUMPI JUMPDEST PUSH8 0x400000000000000 DUP4 AND PUSH2 0x2707 JUMPI JUMPDEST PUSH8 0x200000000000000 DUP4 AND PUSH2 0x26F4 JUMPI JUMPDEST PUSH8 0x100000000000000 DUP4 AND PUSH2 0x26E1 JUMPI JUMPDEST PUSH7 0x80000000000000 DUP4 AND PUSH2 0x26CE JUMPI JUMPDEST PUSH7 0x40000000000000 DUP4 AND PUSH2 0x26BB JUMPI JUMPDEST PUSH7 0x20000000000000 DUP4 AND PUSH2 0x26A8 JUMPI JUMPDEST PUSH7 0x10000000000000 DUP4 AND PUSH2 0x2695 JUMPI JUMPDEST PUSH7 0x8000000000000 DUP4 AND PUSH2 0x2682 JUMPI JUMPDEST PUSH7 0x4000000000000 DUP4 AND PUSH2 0x266F JUMPI JUMPDEST PUSH7 0x2000000000000 DUP4 AND PUSH2 0x265C JUMPI JUMPDEST PUSH7 0x1000000000000 DUP4 AND PUSH2 0x2649 JUMPI JUMPDEST PUSH6 0x800000000000 DUP4 AND PUSH2 0x2636 JUMPI JUMPDEST PUSH6 0x400000000000 DUP4 AND PUSH2 0x2623 JUMPI JUMPDEST PUSH6 0x200000000000 DUP4 AND PUSH2 0x2610 JUMPI JUMPDEST PUSH6 0x100000000000 DUP4 AND PUSH2 0x25FD JUMPI JUMPDEST PUSH6 0x80000000000 DUP4 AND PUSH2 0x25EA JUMPI JUMPDEST PUSH6 0x40000000000 DUP4 AND PUSH2 0x25D7 JUMPI JUMPDEST PUSH6 0x20000000000 DUP4 AND PUSH2 0x25C4 JUMPI JUMPDEST PUSH6 0x10000000000 DUP4 AND PUSH2 0x25B1 JUMPI JUMPDEST PUSH5 0x8000000000 DUP4 AND PUSH2 0x259E JUMPI JUMPDEST PUSH5 0x4000000000 DUP4 AND PUSH2 0x258B JUMPI JUMPDEST PUSH5 0x2000000000 DUP4 AND PUSH2 0x2578 JUMPI JUMPDEST PUSH5 0x1000000000 DUP4 AND PUSH2 0x2565 JUMPI JUMPDEST PUSH5 0x800000000 DUP4 AND PUSH2 0x2552 JUMPI JUMPDEST PUSH5 0x400000000 DUP4 AND PUSH2 0x253F JUMPI JUMPDEST PUSH5 0x200000000 DUP4 AND PUSH2 0x252C JUMPI JUMPDEST PUSH5 0x100000000 DUP4 AND PUSH2 0x2519 JUMPI JUMPDEST PUSH4 0x80000000 DUP4 AND PUSH2 0x2506 JUMPI JUMPDEST PUSH4 0x40000000 DUP4 AND PUSH2 0x24F3 JUMPI JUMPDEST PUSH4 0x20000000 DUP4 AND PUSH2 0x24E0 JUMPI JUMPDEST PUSH4 0x10000000 DUP4 AND PUSH2 0x24CD JUMPI JUMPDEST PUSH4 0x8000000 DUP4 AND PUSH2 0x24BA JUMPI JUMPDEST PUSH4 0x4000000 DUP4 AND PUSH2 0x24A7 JUMPI JUMPDEST PUSH4 0x2000000 DUP4 AND PUSH2 0x2494 JUMPI JUMPDEST PUSH4 0x1000000 DUP4 AND PUSH2 0x2481 JUMPI JUMPDEST PUSH3 0x800000 DUP4 AND PUSH2 0x246E JUMPI JUMPDEST PUSH3 0x400000 DUP4 AND PUSH2 0x245B JUMPI JUMPDEST PUSH3 0x200000 DUP4 AND PUSH2 0x2448 JUMPI JUMPDEST PUSH3 0x100000 DUP4 AND PUSH2 0x2435 JUMPI JUMPDEST PUSH3 0x80000 DUP4 AND PUSH2 0x2422 JUMPI JUMPDEST PUSH3 0x40000 DUP4 AND PUSH2 0x240F JUMPI JUMPDEST PUSH3 0x20000 DUP4 AND PUSH2 0x23FC JUMPI JUMPDEST PUSH3 0x10000 DUP4 AND PUSH2 0x23E9 JUMPI JUMPDEST PUSH2 0x8000 DUP4 AND PUSH2 0x23D6 JUMPI JUMPDEST PUSH2 0x4000 DUP4 AND PUSH2 0x23C3 JUMPI JUMPDEST PUSH2 0x2000 DUP4 AND PUSH2 0x23B0 JUMPI JUMPDEST PUSH2 0x1000 DUP4 AND PUSH2 0x239D JUMPI JUMPDEST PUSH2 0x800 DUP4 AND PUSH2 0x238A JUMPI JUMPDEST PUSH2 0x400 DUP4 AND PUSH2 0x2377 JUMPI JUMPDEST PUSH2 0x200 DUP4 AND PUSH2 0x2364 JUMPI JUMPDEST PUSH2 0x100 DUP4 AND PUSH2 0x2351 JUMPI JUMPDEST PUSH1 0x80 DUP4 AND PUSH2 0x233E JUMPI JUMPDEST PUSH1 0x40 DUP4 AND PUSH2 0x232B JUMPI JUMPDEST PUSH1 0x20 DUP4 AND PUSH2 0x2318 JUMPI JUMPDEST PUSH1 0x10 DUP4 AND PUSH2 0x2305 JUMPI JUMPDEST PUSH1 0x8 DUP4 AND PUSH2 0x22F2 JUMPI JUMPDEST PUSH1 0x4 DUP4 AND PUSH2 0x22DF JUMPI JUMPDEST PUSH1 0x2 DUP4 AND PUSH2 0x22CC JUMPI JUMPDEST PUSH1 0x1 DUP4 AND PUSH2 0x22B9 JUMPI JUMPDEST MUL SWAP1 PUSH1 0x40 SHR PUSH1 0xBF SUB SHR PUSH32 0xFFFFFFFFFFFFFFFFFFFFFFFFFFFFFFFFFFFFFFFFFFFFFFFFF21F494C589C0000 DUP2 ADD SWAP1 DUP2 GT PUSH2 0x228B JUMPI PUSH1 0x20 SWAP1 PUSH1 0x40 MLOAD SWAP1 DUP2 MSTORE RETURN JUMPDEST POP PUSH32 0x4E487B7100000000000000000000000000000000000000000000000000000000 PUSH1 0x0 MSTORE PUSH1 0x11 PUSH1 0x4 MSTORE PUSH1 0x0 REVERT JUMPDEST PUSH9 0x10000000000000001 MUL PUSH1 0x40 SHR PUSH2 0x224D JUMP JUMPDEST PUSH9 0x10000000000000001 MUL PUSH1 0x40 SHR PUSH2 0x2244 JUMP JUMPDEST PUSH9 0x10000000000000003 MUL PUSH1 0x40 SHR PUSH2 0x223B JUMP JUMPDEST PUSH9 0x10000000000000006 MUL PUSH1 0x40 SHR PUSH2 0x2232 JUMP JUMPDEST PUSH9 0x1000000000000000B MUL PUSH1 0x40 SHR PUSH2 0x2229 JUMP JUMPDEST PUSH9 0x10000000000000016 MUL PUSH1 0x40 SHR PUSH2 0x2220 JUMP JUMPDEST PUSH9 0x1000000000000002C MUL PUSH1 0x40 SHR PUSH2 0x2217 JUMP JUMPDEST PUSH9 0x10000000000000059 MUL PUSH1 0x40 SHR PUSH2 0x220E JUMP JUMPDEST PUSH9 0x100000000000000B1 MUL PUSH1 0x40 SHR PUSH2 0x2205 JUMP JUMPDEST PUSH9 0x10000000000000163 MUL PUSH1 0x40 SHR PUSH2 0x21FB JUMP JUMPDEST PUSH9 0x100000000000002C6 MUL PUSH1 0x40 SHR PUSH2 0x21F1 JUMP JUMPDEST PUSH9 0x1000000000000058C MUL PUSH1 0x40 SHR PUSH2 0x21E7 JUMP JUMPDEST PUSH9 0x10000000000000B17 MUL PUSH1 0x40 SHR PUSH2 0x21DD JUMP JUMPDEST PUSH9 0x1000000000000162E MUL PUSH1 0x40 SHR PUSH2 0x21D3 JUMP JUMPDEST PUSH9 0x10000000000002C5D MUL PUSH1 0x40 SHR PUSH2 0x21C9 JUMP JUMPDEST PUSH9 0x100000000000058B9 MUL PUSH1 0x40 SHR PUSH2 0x21BF JUMP JUMPDEST PUSH9 0x1000000000000B172 MUL PUSH1 0x40 SHR PUSH2 0x21B5 JUMP JUMPDEST PUSH9 0x100000000000162E4 MUL PUSH1 0x40 SHR PUSH2 0x21AA JUMP JUMPDEST PUSH9 0x1000000000002C5C8 MUL PUSH1 0x40 SHR PUSH2 0x219F JUMP JUMPDEST PUSH9 0x10000000000058B91 MUL PUSH1 0x40 SHR PUSH2 0x2194 JUMP JUMPDEST PUSH9 0x100000000000B1721 MUL PUSH1 0x40 SHR PUSH2 0x2189 JUMP JUMPDEST PUSH9 0x10000000000162E43 MUL PUSH1 0x40 SHR PUSH2 0x217E JUMP JUMPDEST PUSH9 0x100000000002C5C86 MUL PUSH1 0x40 SHR PUSH2 0x2173 JUMP JUMPDEST PUSH9 0x1000000000058B90C MUL PUSH1 0x40 SHR PUSH2 0x2168 JUMP JUMPDEST PUSH9 0x10000000000B17218 MUL PUSH1 0x40 SHR PUSH2 0x215D JUMP JUMPDEST PUSH9 0x1000000000162E430 MUL PUSH1 0x40 SHR PUSH2 0x2151 JUMP JUMPDEST PUSH9 0x10000000002C5C860 MUL PUSH1 0x40 SHR PUSH2 0x2145 JUMP JUMPDEST PUSH9 0x100000000058B90C0 MUL PUSH1 0x40 SHR PUSH2 0x2139 JUMP JUMPDEST PUSH9 0x1000000000B17217F MUL PUSH1 0x40 SHR PUSH2 0x212D JUMP JUMPDEST PUSH9 0x100000000162E42FF MUL PUSH1 0x40 SHR PUSH2 0x2121 JUMP JUMPDEST PUSH9 0x1000000002C5C85FE MUL PUSH1 0x40 SHR PUSH2 0x2115 JUMP JUMPDEST PUSH9 0x10000000058B90BFC MUL PUSH1 0x40 SHR PUSH2 0x2109 JUMP JUMPDEST PUSH9 0x100000000B17217F8 MUL PUSH1 0x40 SHR PUSH2 0x20FD JUMP JUMPDEST PUSH9 0x10000000162E42FF1 MUL PUSH1 0x40 SHR PUSH2 0x20F0 JUMP JUMPDEST PUSH9 0x100000002C5C85FE3 MUL PUSH1 0x40 SHR PUSH2 0x20E3 JUMP JUMPDEST PUSH9 0x1000000058B90BFCE MUL PUSH1 0x40 SHR PUSH2 0x20D6 JUMP JUMPDEST PUSH9 0x10000000B17217FBB MUL PUSH1 0x40 SHR PUSH2 0x20C9 JUMP JUMPDEST PUSH9 0x1000000162E42FFF0 MUL PUSH1 0x40 SHR PUSH2 0x20BC JUMP JUMPDEST PUSH9 0x10000002C5C8601CC MUL PUSH1 0x40 SHR PUSH2 0x20AF JUMP JUMPDEST PUSH9 0x100000058B90C0B49 MUL PUSH1 0x40 SHR PUSH2 0x20A2 JUMP JUMPDEST PUSH9 0x1000000B172183551 MUL PUSH1 0x40 SHR PUSH2 0x2095 JUMP JUMPDEST PUSH9 0x100000162E430E5A2 MUL PUSH1 0x40 SHR PUSH2 0x2087 JUMP JUMPDEST PUSH9 0x1000002C5C863B73F MUL PUSH1 0x40 SHR PUSH2 0x2079 JUMP JUMPDEST PUSH9 0x10000058B90CF1E6E MUL PUSH1 0x40 SHR PUSH2 0x206B JUMP JUMPDEST PUSH9 0x100000B1721BCFC9A MUL PUSH1 0x40 SHR PUSH2 0x205D JUMP JUMPDEST PUSH9 0x10000162E43F4F831 MUL PUSH1 0x40 SHR PUSH2 0x204F JUMP JUMPDEST PUSH9 0x100002C5C89D5EC6D MUL PUSH1 0x40 SHR PUSH2 0x2041 JUMP JUMPDEST PUSH9 0x1000058B91B5BC9AE MUL PUSH1 0x40 SHR PUSH2 0x2033 JUMP JUMPDEST PUSH9 0x10000B17255775C04 MUL PUSH1 0x40 SHR PUSH2 0x2025 JUMP JUMPDEST PUSH9 0x1000162E525EE0547 MUL PUSH1 0x40 SHR PUSH2 0x2016 JUMP JUMPDEST PUSH9 0x10002C5CC37DA9492 MUL PUSH1 0x40 SHR PUSH2 0x2007 JUMP JUMPDEST PUSH9 0x100058BA01FB9F96D MUL PUSH1 0x40 SHR PUSH2 0x1FF8 JUMP JUMPDEST PUSH9 0x1000B175EFFDC76BA MUL PUSH1 0x40 SHR PUSH2 0x1FE9 JUMP JUMPDEST PUSH9 0x100162F3904051FA1 MUL PUSH1 0x40 SHR PUSH2 0x1FDA JUMP JUMPDEST PUSH9 0x1002C605E2E8CEC50 MUL PUSH1 0x40 SHR PUSH2 0x1FCB JUMP JUMPDEST PUSH9 0x10058C86DA1C09EA2 MUL PUSH1 0x40 SHR PUSH2 0x1FBC JUMP JUMPDEST PUSH9 0x100B1AFA5ABCBED61 MUL PUSH1 0x40 SHR PUSH2 0x1FAD JUMP JUMPDEST PUSH9 0x10163DA9FB33356D8 MUL PUSH1 0x40 SHR PUSH2 0x1F9D JUMP JUMPDEST PUSH9 0x102C9A3E778060EE7 MUL PUSH1 0x40 SHR PUSH2 0x1F8D JUMP JUMPDEST PUSH9 0x1059B0D31585743AE MUL PUSH1 0x40 SHR PUSH2 0x1F7D JUMP JUMPDEST PUSH9 0x10B5586CF9890F62A MUL PUSH1 0x40 SHR PUSH2 0x1F6D JUMP JUMPDEST PUSH9 0x1172B83C7D517ADCE MUL PUSH1 0x40 SHR PUSH2 0x1F5D JUMP JUMPDEST PUSH9 0x1306FE0A31B7152DF MUL PUSH1 0x40 SHR PUSH2 0x1F4D JUMP JUMPDEST POP PUSH24 0xB504F333F9DE648480000000000000000000000000000000 PUSH2 0x1F3D JUMP JUMPDEST POP PUSH1 0x40 MLOAD SWAP1 PUSH32 0x4A4F26F100000000000000000000000000000000000000000000000000000000 DUP3 MSTORE PUSH1 0x4 DUP3 ADD MSTORE REVERT JUMPDEST POP POP PUSH1 0x40 MLOAD SWAP1 PUSH32 0x315DA06800000000000000000000000000000000000000000000000000000000 DUP3 MSTORE PUSH1 0x4 DUP3 ADD MSTORE REVERT JUMPDEST DUP4 PUSH32 0x4E487B7100000000000000000000000000000000000000000000000000000000 PUSH1 0x0 MSTORE PUSH1 0x11 PUSH1 0x4 MSTORE PUSH1 0x0 REVERT JUMPDEST DUP6 PUSH32 0x4E487B7100000000000000000000000000000000000000000000000000000000 PUSH1 0x0 MSTORE PUSH1 0x11 PUSH1 0x4 MSTORE PUSH1 0x0 REVERT JUMPDEST CALLVALUE PUSH2 0x163 JUMPI PUSH1 0x0 PUSH32 0xFFFFFFFFFFFFFFFFFFFFFFFFFFFFFFFFFFFFFFFFFFFFFFFFFFFFFFFFFFFFFFFC CALLDATASIZE ADD SLT PUSH2 0x163 JUMPI PUSH1 0x60 DUP2 ADD SWAP1 DUP1 DUP3 LT PUSH8 0xFFFFFFFFFFFFFFFF DUP4 GT OR PUSH2 0x1164 JUMPI PUSH2 0x487 SWAP2 PUSH1 0x40 MSTORE PUSH1 0x24 DUP2 MSTORE PUSH32 0x4379676E75732D4E6562756C613A204D657461537461626C6520425054204F72 PUSH1 0x20 DUP3 ADD MSTORE PUSH32 0x61636C6500000000000000000000000000000000000000000000000000000000 PUSH1 0x40 DUP3 ADD MSTORE PUSH1 0x40 MLOAD SWAP2 DUP3 SWAP2 PUSH1 0x20 DUP4 MSTORE PUSH1 0x20 DUP4 ADD SWAP1 PUSH2 0x298F JUMP JUMPDEST PUSH2 0x100 DUP2 ADD SWAP1 DUP2 LT PUSH8 0xFFFFFFFFFFFFFFFF DUP3 GT OR PUSH2 0x1164 JUMPI PUSH1 0x40 MSTORE JUMP JUMPDEST PUSH1 0x40 DUP2 ADD SWAP1 DUP2 LT PUSH8 0xFFFFFFFFFFFFFFFF DUP3 GT OR PUSH2 0x1164 JUMPI PUSH1 0x40 MSTORE JUMP JUMPDEST SWAP1 PUSH1 0x1F PUSH32 0xFFFFFFFFFFFFFFFFFFFFFFFFFFFFFFFFFFFFFFFFFFFFFFFFFFFFFFFFFFFFFFE0 SWAP2 ADD AND DUP2 ADD SWAP1 DUP2 LT PUSH8 0xFFFFFFFFFFFFFFFF DUP3 GT OR PUSH2 0x1164 JUMPI PUSH1 0x40 MSTORE JUMP JUMPDEST PUSH1 0x0 JUMPDEST DUP4 DUP2 LT PUSH2 0x297F JUMPI POP POP PUSH1 0x0 SWAP2 ADD MSTORE JUMP JUMPDEST DUP2 DUP2 ADD MLOAD DUP4 DUP3 ADD MSTORE PUSH1 0x20 ADD PUSH2 0x296F JUMP JUMPDEST SWAP1 PUSH32 0xFFFFFFFFFFFFFFFFFFFFFFFFFFFFFFFFFFFFFFFFFFFFFFFFFFFFFFFFFFFFFFE0 PUSH1 0x1F PUSH1 0x20 SWAP4 PUSH2 0x29CB DUP2 MLOAD DUP1 SWAP3 DUP2 DUP8 MSTORE DUP8 DUP1 DUP9 ADD SWAP2 ADD PUSH2 0x296C JUMP JUMPDEST ADD AND ADD ADD SWAP1 JUMP JUMPDEST PUSH1 0x4 CALLDATALOAD SWAP1 PUSH20 0xFFFFFFFFFFFFFFFFFFFFFFFFFFFFFFFFFFFFFFFF DUP3 AND DUP3 SUB PUSH2 0x163 JUMPI JUMP JUMPDEST SWAP1 DUP2 MLOAD DUP1 DUP3 MSTORE PUSH1 0x20 DUP1 DUP1 SWAP4 ADD SWAP4 ADD SWAP2 PUSH1 0x0 JUMPDEST DUP3 DUP2 LT PUSH2 0x2A15 JUMPI POP POP POP POP SWAP1 JUMP JUMPDEST DUP4 MLOAD DUP6 MSTORE SWAP4 DUP2 ADD SWAP4 SWAP3 DUP2 ADD SWAP3 PUSH1 0x1 ADD PUSH2 0x2A07 JUMP JUMPDEST SWAP1 DUP2 MLOAD DUP1 DUP3 MSTORE PUSH1 0x20 DUP1 DUP1 SWAP4 ADD SWAP4 ADD SWAP2 PUSH1 0x0 JUMPDEST DUP3 DUP2 LT PUSH2 0x2A49 JUMPI POP POP POP POP SWAP1 JUMP JUMPDEST DUP4 MLOAD PUSH20 0xFFFFFFFFFFFFFFFFFFFFFFFFFFFFFFFFFFFFFFFF AND DUP6 MSTORE SWAP4 DUP2 ADD SWAP4 SWAP3 DUP2 ADD SWAP3 PUSH1 0x1 ADD PUSH2 0x2A3B JUMP JUMPDEST MLOAD SWAP1 PUSH10 0xFFFFFFFFFFFFFFFFFFFF DUP3 AND DUP3 SUB PUSH2 0x163 JUMPI JUMP JUMPDEST DUP2 DUP2 MUL SWAP3 SWAP2 DUP2 ISZERO SWAP2 DUP5 DIV EQ OR ISZERO PUSH2 0x2A9D JUMPI JUMP JUMPDEST PUSH32 0x4E487B7100000000000000000000000000000000000000000000000000000000 PUSH1 0x0 MSTORE PUSH1 0x11 PUSH1 0x4 MSTORE PUSH1 0x24 PUSH1 0x0 REVERT JUMPDEST PUSH1 0xA0 PUSH20 0xFFFFFFFFFFFFFFFFFFFFFFFFFFFFFFFFFFFFFFFF SWAP2 PUSH1 0x4 PUSH1 0x40 MLOAD DUP1 SWAP5 DUP2 SWAP4 PUSH32 0xFEAF968C00000000000000000000000000000000000000000000000000000000 DUP4 MSTORE AND GAS STATICCALL SWAP1 DUP2 ISZERO PUSH2 0x13BF JUMPI PUSH1 0x0 SWAP2 PUSH2 0x2B3D JUMPI JUMPDEST POP PUSH5 0x2540BE400 SWAP1 DUP2 DUP2 MUL SWAP2 DUP2 DUP4 DIV EQ SWAP1 ISZERO OR ISZERO PUSH2 0x2A9D JUMPI SWAP1 JUMP JUMPDEST SWAP1 PUSH1 0xA0 DUP3 RETURNDATASIZE DUP3 GT PUSH2 0x2B84 JUMPI JUMPDEST DUP2 PUSH2 0x2B56 PUSH1 0xA0 SWAP4 DUP4 PUSH2 0x292B JUMP JUMPDEST DUP2 ADD SUB SLT PUSH2 0x2B81 JUMPI POP PUSH2 0x2B68 DUP2 PUSH2 0x2A73 JUMP JUMPDEST POP PUSH2 0x2B7A PUSH1 0x80 PUSH1 0x20 DUP4 ADD MLOAD SWAP3 ADD PUSH2 0x2A73 JUMP JUMPDEST POP CODESIZE PUSH2 0x2B22 JUMP JUMPDEST DUP1 REVERT JUMPDEST RETURNDATASIZE SWAP2 POP PUSH2 0x2B49 JUMP JUMPDEST SWAP1 PUSH1 0x1 DUP3 DUP2 SHR SWAP3 AND DUP1 ISZERO PUSH2 0x2BD5 JUMPI JUMPDEST PUSH1 0x20 DUP4 LT EQ PUSH2 0x2BA6 JUMPI JUMP JUMPDEST PUSH32 0x4E487B7100000000000000000000000000000000000000000000000000000000 PUSH1 0x0 MSTORE PUSH1 0x22 PUSH1 0x4 MSTORE PUSH1 0x24 PUSH1 0x0 REVERT JUMPDEST SWAP2 PUSH1 0x7F AND SWAP2 PUSH2 0x2B9B JUMP JUMPDEST SWAP1 PUSH1 0x40 MLOAD SWAP2 DUP3 DUP2 SLOAD SWAP2 DUP3 DUP3 MSTORE PUSH1 0x20 SWAP3 DUP4 DUP4 ADD SWAP2 PUSH1 0x0 MSTORE DUP4 PUSH1 0x0 KECCAK256 SWAP4 PUSH1 0x0 SWAP1 JUMPDEST DUP3 DUP3 LT PUSH2 0x2C16 JUMPI POP POP POP PUSH2 0x2C14 SWAP3 POP SUB DUP4 PUSH2 0x292B JUMP JUMPDEST JUMP JUMPDEST DUP6 SLOAD DUP5 MSTORE PUSH1 0x1 SWAP6 DUP7 ADD SWAP6 DUP9 SWAP6 POP SWAP4 DUP2 ADD SWAP4 SWAP1 SWAP2 ADD SWAP1 PUSH2 0x2BFE JUMP JUMPDEST DUP2 ISZERO PUSH2 0x2C3A JUMPI DIV SWAP1 JUMP JUMPDEST PUSH32 0x4E487B7100000000000000000000000000000000000000000000000000000000 PUSH1 0x0 MSTORE PUSH1 0x12 PUSH1 0x4 MSTORE PUSH1 0x24 PUSH1 0x0 REVERT JUMPDEST PUSH1 0xFF AND PUSH1 0x12 SUB SWAP1 PUSH1 0xFF DUP3 GT PUSH2 0x2A9D JUMPI JUMP JUMPDEST PUSH1 0xFF AND PUSH1 0x4D DUP2 GT PUSH2 0x2A9D JUMPI PUSH1 0xA EXP SWAP1 JUMP JUMPDEST PUSH32 0xFFFFFFFFFFFFFFFFFFFFFFFFFFFFFFFFFFFFFFFFFFFFFFFFFFFFFFFFFFFFFFFF DUP2 EQ PUSH2 0x2A9D JUMPI PUSH1 0x1 ADD SWAP1 JUMP JUMPDEST DUP1 MLOAD DUP3 LT ISZERO PUSH2 0x1135 JUMPI PUSH1 0x20 SWAP2 PUSH1 0x5 SHL ADD ADD SWAP1 JUMP JUMPDEST PUSH8 0xFFFFFFFFFFFFFFFF DUP2 GT PUSH2 0x1164 JUMPI PUSH1 0x5 SHL PUSH1 0x20 ADD SWAP1 JUMP JUMPDEST SWAP1 PUSH2 0x2CEE DUP3 PUSH2 0x2CCC JUMP JUMPDEST PUSH2 0x2CFB PUSH1 0x40 MLOAD SWAP2 DUP3 PUSH2 0x292B JUMP JUMPDEST DUP3 DUP2 MSTORE PUSH32 0xFFFFFFFFFFFFFFFFFFFFFFFFFFFFFFFFFFFFFFFFFFFFFFFFFFFFFFFFFFFFFFE0 PUSH2 0x2D29 DUP3 SWAP5 PUSH2 0x2CCC JUMP JUMPDEST ADD SWAP1 PUSH1 0x20 CALLDATASIZE SWAP2 ADD CALLDATACOPY JUMP JUMPDEST SWAP1 DUP2 PUSH1 0x20 SWAP2 SUB SLT PUSH2 0x163 JUMPI MLOAD PUSH1 0xFF DUP2 AND DUP2 SUB PUSH2 0x163 JUMPI SWAP1 JUMP JUMPDEST CALLDATALOAD PUSH20 0xFFFFFFFFFFFFFFFFFFFFFFFFFFFFFFFFFFFFFFFF DUP2 AND DUP2 SUB PUSH2 0x163 JUMPI SWAP1 JUMP JUMPDEST DUP2 DUP2 LT PUSH2 0x2D78 JUMPI POP POP JUMP JUMPDEST PUSH1 0x0 DUP2 SSTORE PUSH1 0x1 ADD PUSH2 0x2D6D JUMP JUMPDEST SWAP2 DUP2 DUP2 LT PUSH2 0x2D91 JUMPI POP POP POP JUMP JUMPDEST PUSH2 0x2C14 SWAP3 PUSH1 0x0 MSTORE PUSH1 0x20 PUSH1 0x0 KECCAK256 SWAP2 DUP3 ADD SWAP2 ADD PUSH2 0x2D6D JUMP JUMPDEST PUSH20 0xFFFFFFFFFFFFFFFFFFFFFFFFFFFFFFFFFFFFFFFF PUSH1 0x3 SLOAD AND CALLER SUB PUSH2 0x2DC8 JUMPI JUMP JUMPDEST PUSH1 0x24 PUSH1 0x40 MLOAD PUSH32 0x97FCC9E200000000000000000000000000000000000000000000000000000000 DUP2 MSTORE CALLER PUSH1 0x4 DUP3 ADD MSTORE REVERT JUMPDEST PUSH8 0xDE0B6B3A7640000 SWAP2 PUSH32 0xFFFFFFFFFFFFFFFFFFFFFFFFFFFFFFFFFFFFFFFFFFFFFFFFFFFFFFFFFFFFFFFF DUP4 DUP4 MULMOD SWAP3 DUP1 DUP4 MUL SWAP3 DUP4 DUP1 DUP7 LT SWAP6 SUB SWAP5 DUP1 DUP7 SUB SWAP6 EQ PUSH2 0x2ECD JUMPI DUP3 DUP6 LT ISZERO PUSH2 0x2E96 JUMPI SWAP1 DUP3 SWAP2 MULMOD PUSH1 0x1 DUP3 NOT ADD DUP3 AND DUP1 SWAP3 DIV PUSH1 0x2 DUP1 DUP3 PUSH1 0x3 MUL XOR DUP1 DUP4 MUL DUP3 SUB MUL DUP1 DUP4 MUL DUP3 SUB MUL DUP1 DUP4 MUL DUP3 SUB MUL DUP1 DUP4 MUL DUP3 SUB MUL DUP1 DUP4 MUL DUP3 SUB MUL DUP1 SWAP3 MUL SWAP1 SUB MUL SWAP4 PUSH1 0x1 DUP4 DUP1 PUSH1 0x0 SUB DIV ADD SWAP1 DUP5 DUP4 GT SWAP1 SUB MUL SWAP3 SUB DIV OR MUL SWAP1 JUMP JUMPDEST PUSH1 0x44 DUP6 DUP5 PUSH1 0x40 MLOAD SWAP2 PUSH32 0x773CC18C00000000000000000000000000000000000000000000000000000000 DUP4 MSTORE PUSH1 0x4 DUP4 ADD MSTORE PUSH1 0x24 DUP3 ADD MSTORE REVERT JUMPDEST POP POP SWAP1 PUSH2 0x2EDA SWAP3 POP PUSH2 0x2C30 JUMP JUMPDEST SWAP1 JUMP JUMPDEST SWAP1 SWAP2 PUSH32 0xFFFFFFFFFFFFFFFFFFFFFFFFFFFFFFFFFFFFFFFFFFFFFFFFFFFFFFFFFFFFFFFF DUP4 DUP4 MULMOD SWAP3 DUP1 DUP4 MUL SWAP3 DUP4 DUP1 DUP7 LT SWAP6 SUB SWAP5 DUP1 DUP7 SUB SWAP6 EQ PUSH2 0x2ECD JUMPI DUP3 DUP6 LT ISZERO PUSH2 0x2E96 JUMPI SWAP1 DUP3 SWAP2 MULMOD PUSH1 0x1 DUP3 NOT ADD DUP3 AND DUP1 SWAP3 DIV PUSH1 0x2 DUP1 DUP3 PUSH1 0x3 MUL XOR DUP1 DUP4 MUL DUP3 SUB MUL DUP1 DUP4 MUL DUP3 SUB MUL DUP1 DUP4 MUL DUP3 SUB MUL DUP1 DUP4 MUL DUP3 SUB MUL DUP1 DUP4 MUL DUP3 SUB MUL DUP1 SWAP3 MUL SWAP1 SUB MUL SWAP4 PUSH1 0x1 DUP4 DUP1 PUSH1 0x0 SUB DIV ADD SWAP1 DUP5 DUP4 GT SWAP1 SUB MUL SWAP3 SUB DIV OR MUL SWAP1 JUMP JUMPDEST SWAP1 PUSH8 0xDE0B6B3A7640000 DUP1 DUP4 LT PUSH2 0x30E8 JUMPI PUSH1 0x0 SWAP3 DUP2 DUP2 DIV PUSH17 0x100000000000000000000000000000000 DUP2 LT ISZERO PUSH2 0x30DD JUMPI JUMPDEST PUSH9 0x10000000000000000 DUP2 LT ISZERO PUSH2 0x30C8 JUMPI JUMPDEST PUSH5 0x100000000 DUP2 LT ISZERO PUSH2 0x30B3 JUMPI JUMPDEST PUSH3 0x10000 DUP2 LT ISZERO PUSH2 0x309E JUMPI JUMPDEST PUSH2 0x100 DUP2 LT ISZERO PUSH2 0x3089 JUMPI JUMPDEST PUSH1 0x10 DUP2 LT ISZERO PUSH2 0x3074 JUMPI JUMPDEST PUSH1 0x4 DUP2 LT ISZERO PUSH2 0x305F JUMPI JUMPDEST PUSH1 0x2 GT ISZERO PUSH2 0x304D JUMPI JUMPDEST DUP2 DUP5 MUL SWAP4 SHR SWAP1 DUP1 DUP3 EQ PUSH2 0x3049 JUMPI PUSH8 0x6F05B59D3B20000 SWAP2 DUP3 JUMPDEST PUSH2 0x301A JUMPI POP POP POP JUMP JUMPDEST DUP1 DUP3 SWAP2 MUL DIV SWAP2 PUSH8 0x1BC16D674EC80000 DUP4 LT ISZERO PUSH2 0x303B JUMPI JUMPDEST PUSH1 0x1 SHR SWAP2 DUP3 PUSH2 0x3011 JUMP JUMPDEST DUP1 SWAP3 SWAP5 ADD SWAP4 PUSH1 0x1 SHR SWAP2 PUSH2 0x3031 JUMP JUMPDEST POP POP JUMP JUMPDEST SWAP3 PUSH1 0x1 DUP2 ADD DUP1 SWAP2 GT PUSH2 0x2A9D JUMPI SWAP3 PUSH2 0x2FF8 JUMP JUMPDEST PUSH1 0x2 SHR SWAP4 PUSH1 0x2 DUP2 ADD DUP1 SWAP2 GT PUSH2 0x2A9D JUMPI SWAP4 PUSH2 0x2FEF JUMP JUMPDEST PUSH1 0x4 SHR SWAP4 PUSH1 0x4 DUP2 ADD DUP1 SWAP2 GT PUSH2 0x2A9D JUMPI SWAP4 PUSH2 0x2FE5 JUMP JUMPDEST PUSH1 0x8 SHR SWAP4 PUSH1 0x8 DUP2 ADD DUP1 SWAP2 GT PUSH2 0x2A9D JUMPI SWAP4 PUSH2 0x2FDB JUMP JUMPDEST PUSH1 0x10 SHR SWAP4 PUSH1 0x10 DUP2 ADD DUP1 SWAP2 GT PUSH2 0x2A9D JUMPI SWAP4 PUSH2 0x2FD0 JUMP JUMPDEST PUSH1 0x20 SHR SWAP4 PUSH1 0x20 DUP2 ADD DUP1 SWAP2 GT PUSH2 0x2A9D JUMPI SWAP4 PUSH2 0x2FC4 JUMP JUMPDEST PUSH1 0x40 SHR SWAP4 PUSH1 0x40 DUP2 ADD DUP1 SWAP2 GT PUSH2 0x2A9D JUMPI SWAP4 PUSH2 0x2FB6 JUMP JUMPDEST PUSH1 0x80 SWAP5 POP DUP5 SHR PUSH2 0x2FA4 JUMP JUMPDEST PUSH1 0x24 DUP4 PUSH1 0x40 MLOAD SWAP1 PUSH32 0xD88504DC00000000000000000000000000000000000000000000000000000000 DUP3 MSTORE PUSH1 0x4 DUP3 ADD MSTORE REVERT INVALID LOG2 PUSH5 0x6970667358 0x22 SLT KECCAK256 0x2B 0xA9 PUSH10 0xC2C1AF9D515B428C168A INVALID 0x2B 0x1E 0xBC ADD MUL KECCAK256 ISZERO ADDRESS 0xEC 0x28 0xCF 0xBE PUSH21 0x99CFF6AB2E64736F6C634300081100330000000000 "},"methodIdentifiers":{"AGGREGATOR_DECIMALS()":"8a790cf2","SECONDS_PER_YEAR()":"e6a69ab8","VAULT()":"411557d1","admin()":"f851a440","allNebulas(uint256)":"d02c70e8","assetPricesUsd(address)":"193d1da9","decimals()":"313ce567","denominationAggregator()":"8eb6f8f0","denominationToken()":"f6b9fdfb","denominationTokenPrice()":"cadbcc21","getAnnualizedBaseRate(uint256,uint256,uint256)":"131ad74e","getNebula(address)":"f0ac40c4","getPriceInternal(address)":"3d0e9707","initializeNebula(address,address[])":"57a4ad7c","lpTokenPriceUsd(address)":"17e5a1a1","name()":"06fdde03","nebulaSize()":"ba3941e7","pendingAdmin()":"26782247","setOracleAdmin()":"62bbb6e0","setOraclePendingAdmin(address)":"65c9b257","symbol()":"95d89b41","version()":"54fd4d50"}}}}}