{
  "_format": "hh-sol-artifact-1",
  "contractName": "CygnusNebulaOracle",
  "sourceName": "contracts/cygnus-oracle/CygnusNebulaOracle.sol",
  "abi": [
    {
      "inputs": [
        {
          "internalType": "contract IERC20",
          "name": "denomination",
          "type": "address"
        },
        {
          "internalType": "contract AggregatorV3Interface",
          "name": "denominationPrice",
          "type": "address"
        }
      ],
      "stateMutability": "nonpayable",
      "type": "constructor"
    },
    {
      "inputs": [
        {
          "internalType": "address",
          "name": "pendingAdmin",
          "type": "address"
        }
      ],
      "name": "CygnusNebulaOracle__AdminCantBeZero",
      "type": "error"
    },
    {
      "inputs": [
        {
          "internalType": "address",
          "name": "sender",
          "type": "address"
        }
      ],
      "name": "CygnusNebulaOracle__MsgSenderNotAdmin",
      "type": "error"
    },
    {
      "inputs": [
        {
          "internalType": "address",
          "name": "lpTokenPair",
          "type": "address"
        }
      ],
      "name": "CygnusNebulaOracle__NebulaRecordAlreadyInitialized",
      "type": "error"
    },
    {
      "inputs": [
        {
          "internalType": "address",
          "name": "lpTokenPair",
          "type": "address"
        }
      ],
      "name": "CygnusNebulaOracle__NebulaRecordNotInitialized",
      "type": "error"
    },
    {
      "inputs": [
        {
          "internalType": "address",
          "name": "lpTokenPair",
          "type": "address"
        }
      ],
      "name": "CygnusNebulaOracle__PairAlreadyInitialized",
      "type": "error"
    },
    {
      "inputs": [
        {
          "internalType": "address",
          "name": "lpTokenPair",
          "type": "address"
        }
      ],
      "name": "CygnusNebulaOracle__PairNotInitialized",
      "type": "error"
    },
    {
      "inputs": [
        {
          "internalType": "address",
          "name": "pendingAdmin",
          "type": "address"
        }
      ],
      "name": "CygnusNebulaOracle__PendingAdminAlreadySet",
      "type": "error"
    },
    {
      "inputs": [
        {
          "internalType": "address",
          "name": "lpTokenPair",
          "type": "address"
        }
      ],
      "name": "CygnusNebulaOracle__PriceCantBeZero",
      "type": "error"
    },
    {
      "inputs": [
        {
          "internalType": "uint256",
          "name": "x",
          "type": "uint256"
        }
      ],
      "name": "PRBMathUD60x18__Exp2InputTooBig",
      "type": "error"
    },
    {
      "inputs": [
        {
          "internalType": "uint256",
          "name": "x",
          "type": "uint256"
        }
      ],
      "name": "PRBMathUD60x18__ExpInputTooBig",
      "type": "error"
    },
    {
      "inputs": [
        {
          "internalType": "uint256",
          "name": "x",
          "type": "uint256"
        }
      ],
      "name": "PRBMathUD60x18__LogInputTooSmall",
      "type": "error"
    },
    {
      "inputs": [
        {
          "internalType": "uint256",
          "name": "prod1",
          "type": "uint256"
        },
        {
          "internalType": "uint256",
          "name": "denominator",
          "type": "uint256"
        }
      ],
      "name": "PRBMath__MulDivOverflow",
      "type": "error"
    },
    {
      "inputs": [],
      "name": "ReentrantCall",
      "type": "error"
    },
    {
      "anonymous": false,
      "inputs": [
        {
          "indexed": false,
          "internalType": "bool",
          "name": "initialized",
          "type": "bool"
        },
        {
          "indexed": false,
          "internalType": "uint88",
          "name": "oracleId",
          "type": "uint88"
        },
        {
          "indexed": false,
          "internalType": "address",
          "name": "lpTokenPair",
          "type": "address"
        },
        {
          "indexed": false,
          "internalType": "contract IERC20[]",
          "name": "poolTokens",
          "type": "address[]"
        },
        {
          "indexed": false,
          "internalType": "uint256[]",
          "name": "poolTokensDecimals",
          "type": "uint256[]"
        },
        {
          "indexed": false,
          "internalType": "contract AggregatorV3Interface[]",
          "name": "priceFeeds",
          "type": "address[]"
        },
        {
          "indexed": false,
          "internalType": "uint256[]",
          "name": "priceFeedsDecimals",
          "type": "uint256[]"
        }
      ],
      "name": "InitializeCygnusNebula",
      "type": "event"
    },
    {
      "anonymous": false,
      "inputs": [
        {
          "indexed": false,
          "internalType": "address",
          "name": "oracleOldAdmin",
          "type": "address"
        },
        {
          "indexed": false,
          "internalType": "address",
          "name": "oracleNewAdmin",
          "type": "address"
        }
      ],
      "name": "NewOracleAdmin",
      "type": "event"
    },
    {
      "anonymous": false,
      "inputs": [
        {
          "indexed": false,
          "internalType": "address",
          "name": "oracleCurrentAdmin",
          "type": "address"
        },
        {
          "indexed": false,
          "internalType": "address",
          "name": "oraclePendingAdmin",
          "type": "address"
        }
      ],
      "name": "NewOraclePendingAdmin",
      "type": "event"
    },
    {
      "inputs": [],
      "name": "AGGREGATOR_DECIMALS",
      "outputs": [
        {
          "internalType": "uint256",
          "name": "",
          "type": "uint256"
        }
      ],
      "stateMutability": "view",
      "type": "function"
    },
    {
      "inputs": [],
      "name": "SECONDS_PER_YEAR",
      "outputs": [
        {
          "internalType": "uint256",
          "name": "",
          "type": "uint256"
        }
      ],
      "stateMutability": "view",
      "type": "function"
    },
    {
      "inputs": [],
      "name": "VAULT",
      "outputs": [
        {
          "internalType": "contract IVault",
          "name": "",
          "type": "address"
        }
      ],
      "stateMutability": "view",
      "type": "function"
    },
    {
      "inputs": [],
      "name": "admin",
      "outputs": [
        {
          "internalType": "address",
          "name": "",
          "type": "address"
        }
      ],
      "stateMutability": "view",
      "type": "function"
    },
    {
      "inputs": [
        {
          "internalType": "uint256",
          "name": "",
          "type": "uint256"
        }
      ],
      "name": "allNebulas",
      "outputs": [
        {
          "internalType": "address",
          "name": "",
          "type": "address"
        }
      ],
      "stateMutability": "view",
      "type": "function"
    },
    {
      "inputs": [
        {
          "internalType": "address",
          "name": "lpTokenPair",
          "type": "address"
        }
      ],
      "name": "assetPricesUsd",
      "outputs": [
        {
          "internalType": "uint256[]",
          "name": "",
          "type": "uint256[]"
        }
      ],
      "stateMutability": "view",
      "type": "function"
    },
    {
      "inputs": [],
      "name": "decimals",
      "outputs": [
        {
          "internalType": "uint8",
          "name": "",
          "type": "uint8"
        }
      ],
      "stateMutability": "view",
      "type": "function"
    },
    {
      "inputs": [],
      "name": "denominationAggregator",
      "outputs": [
        {
          "internalType": "contract AggregatorV3Interface",
          "name": "",
          "type": "address"
        }
      ],
      "stateMutability": "view",
      "type": "function"
    },
    {
      "inputs": [],
      "name": "denominationToken",
      "outputs": [
        {
          "internalType": "contract IERC20",
          "name": "",
          "type": "address"
        }
      ],
      "stateMutability": "view",
      "type": "function"
    },
    {
      "inputs": [],
      "name": "denominationTokenPrice",
      "outputs": [
        {
          "internalType": "uint256",
          "name": "",
          "type": "uint256"
        }
      ],
      "stateMutability": "view",
      "type": "function"
    },
    {
      "inputs": [
        {
          "internalType": "uint256",
          "name": "exchangeRateLast",
          "type": "uint256"
        },
        {
          "internalType": "uint256",
          "name": "exchangeRateCurrent",
          "type": "uint256"
        },
        {
          "internalType": "uint256",
          "name": "timeElapsed",
          "type": "uint256"
        }
      ],
      "name": "getAnnualizedBaseRate",
      "outputs": [
        {
          "internalType": "uint256",
          "name": "",
          "type": "uint256"
        }
      ],
      "stateMutability": "pure",
      "type": "function"
    },
    {
      "inputs": [
        {
          "internalType": "address",
          "name": "lpTokenPair",
          "type": "address"
        }
      ],
      "name": "getNebula",
      "outputs": [
        {
          "components": [
            {
              "internalType": "bool",
              "name": "initialized",
              "type": "bool"
            },
            {
              "internalType": "uint88",
              "name": "oracleId",
              "type": "uint88"
            },
            {
              "internalType": "string",
              "name": "name",
              "type": "string"
            },
            {
              "internalType": "address",
              "name": "underlying",
              "type": "address"
            },
            {
              "internalType": "contract IERC20[]",
              "name": "poolTokens",
              "type": "address[]"
            },
            {
              "internalType": "uint256[]",
              "name": "poolTokensDecimals",
              "type": "uint256[]"
            },
            {
              "internalType": "contract AggregatorV3Interface[]",
              "name": "priceFeeds",
              "type": "address[]"
            },
            {
              "internalType": "uint256[]",
              "name": "priceFeedsDecimals",
              "type": "uint256[]"
            }
          ],
          "internalType": "struct ICygnusNebulaOracle.CygnusNebula",
          "name": "",
          "type": "tuple"
        }
      ],
      "stateMutability": "view",
      "type": "function"
    },
    {
      "inputs": [
        {
          "internalType": "contract AggregatorV3Interface",
          "name": "priceFeed",
          "type": "address"
        }
      ],
      "name": "getPriceInternal",
      "outputs": [
        {
          "internalType": "uint256",
          "name": "",
          "type": "uint256"
        }
      ],
      "stateMutability": "view",
      "type": "function"
    },
    {
      "inputs": [
        {
          "internalType": "address",
          "name": "lpTokenPair",
          "type": "address"
        },
        {
          "internalType": "contract AggregatorV3Interface[]",
          "name": "aggregators",
          "type": "address[]"
        }
      ],
      "name": "initializeNebula",
      "outputs": [],
      "stateMutability": "nonpayable",
      "type": "function"
    },
    {
      "inputs": [
        {
          "internalType": "address",
          "name": "lpTokenPair",
          "type": "address"
        }
      ],
      "name": "lpTokenPriceUsd",
      "outputs": [
        {
          "internalType": "uint256",
          "name": "lpTokenPrice",
          "type": "uint256"
        }
      ],
      "stateMutability": "view",
      "type": "function"
    },
    {
      "inputs": [],
      "name": "name",
      "outputs": [
        {
          "internalType": "string",
          "name": "",
          "type": "string"
        }
      ],
      "stateMutability": "view",
      "type": "function"
    },
    {
      "inputs": [],
      "name": "nebulaSize",
      "outputs": [
        {
          "internalType": "uint88",
          "name": "",
          "type": "uint88"
        }
      ],
      "stateMutability": "view",
      "type": "function"
    },
    {
      "inputs": [],
      "name": "pendingAdmin",
      "outputs": [
        {
          "internalType": "address",
          "name": "",
          "type": "address"
        }
      ],
      "stateMutability": "view",
      "type": "function"
    },
    {
      "inputs": [],
      "name": "setOracleAdmin",
      "outputs": [],
      "stateMutability": "nonpayable",
      "type": "function"
    },
    {
      "inputs": [
        {
          "internalType": "address",
          "name": "newPendingAdmin",
          "type": "address"
        }
      ],
      "name": "setOraclePendingAdmin",
      "outputs": [],
      "stateMutability": "nonpayable",
      "type": "function"
    },
    {
      "inputs": [],
      "name": "symbol",
      "outputs": [
        {
          "internalType": "string",
          "name": "",
          "type": "string"
        }
      ],
      "stateMutability": "view",
      "type": "function"
    },
    {
      "inputs": [],
      "name": "version",
      "outputs": [
        {
          "internalType": "string",
          "name": "",
          "type": "string"
        }
      ],
      "stateMutability": "view",
      "type": "function"
    }
  ],
  "bytecode": "0x60e080604052346200015a57604081620032e980380380916200002382856200015f565b8339810103126200015a5780516001600160a01b039182821691908282036200015a576020015192831683036200015a576000805460ff19166001178155600380546001600160a01b0319163317905560809190915260405163313ce56760e01b815291602090839060049082905afa9182156200014d57819262000100575b505060a05260c05260405161314f90816200019a8239608051816101b3015260a0518181816106c001528181611822015281816119430152611c84015260c05181818161069401528181610807015281816119070152611c580152f35b9091506020813d821162000144575b816200011e602093836200015f565b810103126200014057519060ff821682036200013d57503880620000a3565b80fd5b5080fd5b3d91506200010f565b50604051903d90823e3d90fd5b600080fd5b601f909101601f19168101906001600160401b038211908210176200018357604052565b634e487b7160e01b600052604160045260246000fdfe608080604052600436101561001357600080fd5b60003560e01c90816306fdde031461284057508063131ad74e14611e4c57806317e5a1a1146119ff578063193d1da9146118985780632678224714611846578063313ce567146117ea5780633d0e9707146117a9578063411557d11461175c57806354fd4d50146116e057806357a4ad7c14610b2357806362bbb6e0146109dd57806365c9b257146108655780638a790cf21461082b5780638eb6f8f0146107bc57806395d89b4114610740578063ba3941e7146106f7578063cadbcc211461065b578063d02c70e8146105d6578063e6a69ab814610599578063f0ac40c4146101d7578063f6b9fdfb146101685763f851a4401461011157600080fd5b346101635760007ffffffffffffffffffffffffffffffffffffffffffffffffffffffffffffffffc36011261016357602073ffffffffffffffffffffffffffffffffffffffff60035416604051908152f35b600080fd5b346101635760007ffffffffffffffffffffffffffffffffffffffffffffffffffffffffffffffffc36011261016357602060405173ffffffffffffffffffffffffffffffffffffffff7f0000000000000000000000000000000000000000000000000000000000000000168152f35b346101635760207ffffffffffffffffffffffffffffffffffffffffffffffffffffffffffffffffc3601126101635773ffffffffffffffffffffffffffffffffffffffff6102236129d2565b606060e0604051610233816128f2565b60008152600060208201528260408201526000838201528260808201528260a08201528260c08201520152166000526001602052604060002060405190610279826128f2565b6affffffffffffffffffffff815460ff81161515845260081c16602083015260018101604051908160008254926102af84612b8c565b80845293600181169081156105595750600114610512575b506102d49250038261292b565b604083015273ffffffffffffffffffffffffffffffffffffffff6002820154166060830152600381016040518082602082945493848152019060005260206000209260005b8181106104e357505061032e9250038261292b565b608083015261033f60048201612bdf565b60a08301526005810160405190816020825491828152019160005260206000209060005b8181106104b757866103896006888861037e818a038261292b565b60c085015201612bdf565b60e0820152604051602081528151151560208201526affffffffffffffffffffff602083015116604082015260408201516103d26101009182606085015261012084019061298f565b9073ffffffffffffffffffffffffffffffffffffffff60608501511660808401526104446104306080860151937fffffffffffffffffffffffffffffffffffffffffffffffffffffffffffffffe094858783030160a0880152612a29565b60a0860151848683030160c08701526129f5565b9360c081015194838582030160e08601526020808751928381520196019060005b81811061048b5786806104878a898960e08a01519185840301908501526129f5565b0390f35b825173ffffffffffffffffffffffffffffffffffffffff16885260209788019790920191600101610465565b825473ffffffffffffffffffffffffffffffffffffffff16845260209093019260019283019201610363565b845473ffffffffffffffffffffffffffffffffffffffff16835260019485019486945060209093019201610319565b90506000929192526020600020906000915b81831061053d5750509060206102d492820101866102c7565b6020919350806001915483858801015201910190918392610524565b602093506102d49592507fffffffffffffffffffffffffffffffffffffffffffffffffffffffffffffff0091501682840152151560051b820101866102c7565b346101635760007ffffffffffffffffffffffffffffffffffffffffffffffffffffffffffffffffc3601126101635760206040516301e133808152f35b346101635760207ffffffffffffffffffffffffffffffffffffffffffffffffffffffffffffffffc360112610163576004356002548110156101635773ffffffffffffffffffffffffffffffffffffffff60209160026000527f405787fa12a823e0f2b7631cc41b3ba8828b3321ca811111fa75cd3aa3bb5ace015416604051908152f35b346101635760007ffffffffffffffffffffffffffffffffffffffffffffffffffffffffffffffffc3601126101635760206106ef6106b87f0000000000000000000000000000000000000000000000000000000000000000612acc565b6106e96106e47f0000000000000000000000000000000000000000000000000000000000000000612c69565b612c7a565b90612c30565b604051908152f35b346101635760007ffffffffffffffffffffffffffffffffffffffffffffffffffffffffffffffffc3601126101635760206affffffffffffffffffffff60025416604051908152f35b346101635760007ffffffffffffffffffffffffffffffffffffffffffffffffffffffffffffffffc3601126101635761048760405161077e8161290f565b600981527f4379674e6562756c610000000000000000000000000000000000000000000000602082015260405191829160208352602083019061298f565b346101635760007ffffffffffffffffffffffffffffffffffffffffffffffffffffffffffffffffc36011261016357602060405173ffffffffffffffffffffffffffffffffffffffff7f0000000000000000000000000000000000000000000000000000000000000000168152f35b346101635760007ffffffffffffffffffffffffffffffffffffffffffffffffffffffffffffffffc36011261016357602060405160088152f35b346101635760207ffffffffffffffffffffffffffffffffffffffffffffffffffffffffffffffffc3601126101635761089c6129d2565b60005460ff8116156109b3577fffffffffffffffffffffffffffffffffffffffffffffffffffffffffffffff0016806000556108d6612da7565b6004549173ffffffffffffffffffffffffffffffffffffffff808216938181168514610982577fffffffffffffffffffffffff0000000000000000000000000000000000000000169093176004556003546040805173ffffffffffffffffffffffffffffffffffffffff9290951682168552911660208401526001927f0ddc205eecbcb9fd6100d787269a63285115c1e35297b5cd128aa171376b762291819081015b0390a117600055005b602485604051907f3181df520000000000000000000000000000000000000000000000000000000082526004820152fd5b60046040517f37ed32e8000000000000000000000000000000000000000000000000000000008152fd5b346101635760007ffffffffffffffffffffffffffffffffffffffffffffffffffffffffffffffffc3601126101635760005460ff8116156109b3577fffffffffffffffffffffffffffffffffffffffffffffffffffffffffffffff001680600055610a46612da7565b6004549073ffffffffffffffffffffffffffffffffffffffff808316928315610af257600380547fffffffffffffffffffffffff0000000000000000000000000000000000000000808216871790925591166004556040805173ffffffffffffffffffffffffffffffffffffffff9290931682168352931660208201526001927f5d79527e1742e3cb9a668b777100775a1648a5a8adea9c578d164dd2d0908aac919081908101610979565b602484604051907fb96488170000000000000000000000000000000000000000000000000000000082526004820152fd5b346101635760407ffffffffffffffffffffffffffffffffffffffffffffffffffffffffffffffffc36011261016357610b5a6129d2565b67ffffffffffffffff60243511610163573660236024350112156101635767ffffffffffffffff60243560040135116101635736602480356004013560051b81350101116101635760005460ff8116156109b3577fffffffffffffffffffffffffffffffffffffffffffffffffffffffffffffff0016600055610bdb612da7565b73ffffffffffffffffffffffffffffffffffffffff8116600052600160205260406000209081549160ff8316611699576040517f38fff2d000000000000000000000000000000000000000000000000000000000815260208160048173ffffffffffffffffffffffffffffffffffffffff87165afa9081156113bf57600091611667575b50604051907ff94d4668000000000000000000000000000000000000000000000000000000008252600482015260008160248173ba12222222228d8ba445958a75a0704d566bf2c85afa9081156113bf57600091611510575b50610cc860243560040135612ce4565b91610cd860243560040135612ce4565b9460005b6024356004013581106113cb57507fffffffffffffffffffffffffffffffffffffffff0000000000000000000000ff6bffffffffffffffffffffff0060025460081b1691161781556040517f06fdde0300000000000000000000000000000000000000000000000000000000815260008160048173ffffffffffffffffffffffffffffffffffffffff89165afa9081156113bf57600091611317575b5080519067ffffffffffffffff8211611164578190610d9a6001850154612b8c565b601f81116112d7575b50602090601f831160011461120b57600092611200575b50507fffffffffffffffffffffffffffffffffffffffffffffffffffffffffffffffff8260011b9260031b1c19161760018201555b6002810173ffffffffffffffffffffffffffffffffffffffff85167fffffffffffffffffffffffff0000000000000000000000000000000000000000825416179055815167ffffffffffffffff8111611164576801000000000000000081116111645760038201610e6582825481845583612d84565b6020840190600052602060002060005b8381106111d65750505050825167ffffffffffffffff8111611164576801000000000000000081116111645760048201610eb482825481845583612d84565b6020850190600052602060002060005b8381106111c257505050506801000000000000000060243560040135116111645760058101805460046024350135808355610f0192909190612d84565b602480350192836005830160005260206000209060005b6024356004013581106111a757505050855167ffffffffffffffff8111611164576801000000000000000081116111645760068301610f5c82825481845583612d84565b6020880190600052602060002060005b838110611193575050505060017fffffffffffffffffffffffffffffffffffffffffffffffffffffffffffffff00835416178255600254680100000000000000008110156111645760018101806002558110156111355760209373ffffffffffffffffffffffffffffffffffffffff6affffffffffffffffffffff611077956110699460026000527f405787fa12a823e0f2b7631cc41b3ba8828b3321ca811111fa75cd3aa3bb5ace01838b167fffffffffffffffffffffffff00000000000000000000000000000000000000008254161790555460081c16976040519860018a52878a015216604088015260e0606088015260e0870190612a29565b9085820360808701526129f5565b83810360a0850152602435600401358152019060005b6024356004013581106110ff577fa10f24181361eab11f2968f6620bfbaa4e57629872406f8629efd8d295586b9484806110cf868983820360c08501526129f5565b0390a1600080547fffffffffffffffffffffffffffffffffffffffffffffffffffffffffffffff00166001179055005b909182359073ffffffffffffffffffffffffffffffffffffffff821680920361016357602081600193829352019301910161108d565b7f4e487b7100000000000000000000000000000000000000000000000000000000600052603260045260246000fd5b7f4e487b7100000000000000000000000000000000000000000000000000000000600052604160045260246000fd5b600190602084519401938184015501610f6c565b60019060206111b584612d4c565b9301928185015501610f18565b600190602084519401938184015501610ec4565b600190602073ffffffffffffffffffffffffffffffffffffffff8551169401938184015501610e75565b015190508780610dba565b9250600184016000526020600020906000935b7fffffffffffffffffffffffffffffffffffffffffffffffffffffffffffffffe0841685106112bc5760019450837fffffffffffffffffffffffffffffffffffffffffffffffffffffffffffffffe0811610611285575b505050811b016001820155610def565b01517fffffffffffffffffffffffffffffffffffffffffffffffffffffffffffffffff60f88460031b161c19169055878080611275565b8181015183556020948501946001909301929091019061121e565b61130790600186016000526020600020601f850160051c8101916020861061130d575b601f0160051c0190612d6d565b88610da3565b90915081906112fa565b90503d806000833e611329818361292b565b8101906020818303126101635780519067ffffffffffffffff8211610163570181601f8201121561016357805167ffffffffffffffff8111611164576040519261139b60207fffffffffffffffffffffffffffffffffffffffffffffffffffffffffffffffe0601f850116018561292b565b81845260208284010111610163576113b9916020808501910161296c565b86610d78565b6040513d6000823e3d90fd5b80602073ffffffffffffffffffffffffffffffffffffffff6113ef60049488612cb8565b5116604051938480927f313ce5670000000000000000000000000000000000000000000000000000000082525afa9182156113bf5760049260ff916000916114f1575b501661143e8288612cb8565b52602073ffffffffffffffffffffffffffffffffffffffff61146860248460051b81350101612d4c565b16604051938480927f313ce5670000000000000000000000000000000000000000000000000000000082525afa9182156113bf576114bd9260ff916000916114c2575b50166114b7828a612cb8565b52612c8b565b610cdc565b6114e4915060203d6020116114ea575b6114dc818361292b565b810190612d33565b8a6114ab565b503d6114d2565b61150a915060203d6020116114ea576114dc818361292b565b8a611432565b3d9150816000823e611522828261292b565b60608183810103126101635780519167ffffffffffffffff831161016357808201601f84840101121561016357828201519261155d84612ccc565b9361156b604051958661292b565b808552602085019183850160208360051b8388010101116101635791602083860101925b60208360051b828801010184106116345750505050602082015167ffffffffffffffff811161016357818301601f82850101121561016357808301519260206115d785612ccc565b6115e4604051918261292b565b8581520192810160208560051b8484010101116101635780820160200192915b60208560051b8284010101841061162057505050505084610cb8565b602080809486518152019401939250611604565b83519173ffffffffffffffffffffffffffffffffffffffff8316830361016357602081819482935201940193915061158f565b90506020813d602011611691575b816116826020938361292b565b81010312610163575184610c5f565b3d9150611675565b60248273ffffffffffffffffffffffffffffffffffffffff604051917f48a979dc000000000000000000000000000000000000000000000000000000008352166004820152fd5b346101635760007ffffffffffffffffffffffffffffffffffffffffffffffffffffffffffffffffc3601126101635761048760405161171e8161290f565b600581527f312e302e30000000000000000000000000000000000000000000000000000000602082015260405191829160208352602083019061298f565b346101635760007ffffffffffffffffffffffffffffffffffffffffffffffffffffffffffffffffc36011261016357602060405173ba12222222228d8ba445958a75a0704d566bf2c88152f35b346101635760207ffffffffffffffffffffffffffffffffffffffffffffffffffffffffffffffffc3601126101635760206106ef6117e56129d2565b612acc565b346101635760007ffffffffffffffffffffffffffffffffffffffffffffffffffffffffffffffffc36011261016357602060405160ff7f0000000000000000000000000000000000000000000000000000000000000000168152f35b346101635760007ffffffffffffffffffffffffffffffffffffffffffffffffffffffffffffffffc36011261016357602073ffffffffffffffffffffffffffffffffffffffff60045416604051908152f35b34610163576020807ffffffffffffffffffffffffffffffffffffffffffffffffffffffffffffffffc3601126101635773ffffffffffffffffffffffffffffffffffffffff90816118e76129d2565b16806000526001825260406000209060ff825416156119ce57509161192b7f0000000000000000000000000000000000000000000000000000000000000000612acc565b60038401549161193a83612ce4565b600590950180547f00000000000000000000000000000000000000000000000000000000000000009060005b8681106119805760405188815280610487818b018c6129f5565b81811015611135576119c990846000526119bf6119a487838c600020015416612acc565b6119b96119b36106e488612c69565b8a612a8a565b90612df8565b6114b7828c612cb8565b611966565b602490604051907ffb642b4d0000000000000000000000000000000000000000000000000000000082526004820152fd5b34610163576020807ffffffffffffffffffffffffffffffffffffffffffffffffffffffffffffffffc3601126101635773ffffffffffffffffffffffffffffffffffffffff9081611a4e6129d2565b169182600052600190818352604060002060405192611a6c846128f2565b6affffffffffffffffffffff825460ff81161515865260081c168585015280820160405190816000825492611aa084612b8c565b938484528a8782169182600014611e0e575050600114611dcd575b50611ac89250038261292b565b60408501528260028301541691606085019283526003810194604051808789829954938481520190600052896000209260005b878c838310611db65750505050611b149250038761292b565b60808101958652611b2760048301612bdf565b60a08201526005820191604051809384918a82549182815201916000528a6000209060005b888d838310611d9f57505050505091611b6c600692611b7994038661292b565b60c0840194855201612bdf565b60e08201525115611d6e5760049596506040848451168151978880927f9b02cdde0000000000000000000000000000000000000000000000000000000082525afa9586156113bf57600096611d3a575b50918187937fffffffffffffffffffffffffffffffffffffffffffffffffffffffffffffffff96959396956000975b611cdf575b505050600494505116604051938480927f18160ddd0000000000000000000000000000000000000000000000000000000082525afa9182156113bf57600092611cae575b50906106ef92611c5092612edd565b6119b9611c7c7f0000000000000000000000000000000000000000000000000000000000000000612acc565b611ca86106e47f0000000000000000000000000000000000000000000000000000000000000000612c69565b90612a8a565b91508382813d8311611cd8575b611cc5818361292b565b81010312610163579051906106ef611c41565b503d611cbb565b919395909294825151881015611d2f5750611d1a90611d0a87611d038a8751612cb8565b5116612acc565b80821015611d2857505b96612c8b565b959492909188949282611bf8565b9050611d14565b949281969450611bfd565b9095506040813d604011611d66575b81611d566040938361292b565b8101031261016357519487611bc9565b3d9150611d49565b602487604051907ffb642b4d0000000000000000000000000000000000000000000000000000000082526004820152fd5b84548d168652899650909401939283019201611b4c565b86548c168552958101958c95509093019201611afb565b915050600052818780600020856000915b858310611df5575050611ac893508201018a611abb565b8091929450548385880101520191018890858593611dde565b7fffffffffffffffffffffffffffffffffffffffffffffffffffffffffffffff001685820152611ac895151560051b85010192508c9150611abb9050565b346101635760607ffffffffffffffffffffffffffffffffffffffffffffffffffffffffffffffffc36011261016357670de0b6b3a76400006714057b7ef767814f8082611e9a600435612f73565b0204916024928282611eac8635612f73565b020481810391818311612812576301e1338080840293840414911417156127e457611eda9060443590612c30565b91680736ea4425c11ac6318310156127b4576706f05b59d3b2000090829302010490680a688906bd8b00000082101561278557809160401b0490778000000000000000000000000000000000000000000000006780000000000000008316612766575b6740000000000000008316612753575b6720000000000000008316612740575b671000000000000000831661272d575b670800000000000000831661271a575b6704000000000000008316612707575b67020000000000000083166126f4575b67010000000000000083166126e1575b668000000000000083166126ce575b664000000000000083166126bb575b662000000000000083166126a8575b66100000000000008316612695575b66080000000000008316612682575b6604000000000000831661266f575b6602000000000000831661265c575b66010000000000008316612649575b658000000000008316612636575b654000000000008316612623575b652000000000008316612610575b6510000000000083166125fd575b6508000000000083166125ea575b6504000000000083166125d7575b6502000000000083166125c4575b6501000000000083166125b1575b648000000000831661259e575b644000000000831661258b575b6420000000008316612578575b6410000000008316612565575b6408000000008316612552575b640400000000831661253f575b640200000000831661252c575b6401000000008316612519575b63800000008316612506575b634000000083166124f3575b632000000083166124e0575b631000000083166124cd575b630800000083166124ba575b630400000083166124a7575b63020000008316612494575b63010000008316612481575b62800000831661246e575b62400000831661245b575b622000008316612448575b621000008316612435575b620800008316612422575b62040000831661240f575b6202000083166123fc575b6201000083166123e9575b61800083166123d6575b61400083166123c3575b61200083166123b0575b611000831661239d575b610800831661238a575b6104008316612377575b6102008316612364575b6101008316612351575b6080831661233e575b6040831661232b575b60208316612318575b60108316612305575b600883166122f2575b600483166122df575b600283166122cc575b600183166122b9575b029060401c60bf031c7ffffffffffffffffffffffffffffffffffffffffffffffffff21f494c589c0000810190811161228b57602090604051908152f35b507f4e487b710000000000000000000000000000000000000000000000000000000060005260116004526000fd5b680100000000000000010260401c61224d565b680100000000000000010260401c612244565b680100000000000000030260401c61223b565b680100000000000000060260401c612232565b6801000000000000000b0260401c612229565b680100000000000000160260401c612220565b6801000000000000002c0260401c612217565b680100000000000000590260401c61220e565b680100000000000000b10260401c612205565b680100000000000001630260401c6121fb565b680100000000000002c60260401c6121f1565b6801000000000000058c0260401c6121e7565b68010000000000000b170260401c6121dd565b6801000000000000162e0260401c6121d3565b68010000000000002c5d0260401c6121c9565b680100000000000058b90260401c6121bf565b6801000000000000b1720260401c6121b5565b680100000000000162e40260401c6121aa565b6801000000000002c5c80260401c61219f565b68010000000000058b910260401c612194565b680100000000000b17210260401c612189565b68010000000000162e430260401c61217e565b680100000000002c5c860260401c612173565b6801000000000058b90c0260401c612168565b68010000000000b172180260401c61215d565b6801000000000162e4300260401c612151565b68010000000002c5c8600260401c612145565b680100000000058b90c00260401c612139565b6801000000000b17217f0260401c61212d565b680100000000162e42ff0260401c612121565b6801000000002c5c85fe0260401c612115565b68010000000058b90bfc0260401c612109565b680100000000b17217f80260401c6120fd565b68010000000162e42ff10260401c6120f0565b680100000002c5c85fe30260401c6120e3565b6801000000058b90bfce0260401c6120d6565b68010000000b17217fbb0260401c6120c9565b6801000000162e42fff00260401c6120bc565b68010000002c5c8601cc0260401c6120af565b680100000058b90c0b490260401c6120a2565b6801000000b1721835510260401c612095565b680100000162e430e5a20260401c612087565b6801000002c5c863b73f0260401c612079565b68010000058b90cf1e6e0260401c61206b565b680100000b1721bcfc9a0260401c61205d565b68010000162e43f4f8310260401c61204f565b680100002c5c89d5ec6d0260401c612041565b6801000058b91b5bc9ae0260401c612033565b68010000b17255775c040260401c612025565b6801000162e525ee05470260401c612016565b68010002c5cc37da94920260401c612007565b680100058ba01fb9f96d0260401c611ff8565b6801000b175effdc76ba0260401c611fe9565b680100162f3904051fa10260401c611fda565b6801002c605e2e8cec500260401c611fcb565b68010058c86da1c09ea20260401c611fbc565b680100b1afa5abcbed610260401c611fad565b68010163da9fb33356d80260401c611f9d565b680102c9a3e778060ee70260401c611f8d565b6801059b0d31585743ae0260401c611f7d565b68010b5586cf9890f62a0260401c611f6d565b6801172b83c7d517adce0260401c611f5d565b6801306fe0a31b7152df0260401c611f4d565b5077b504f333f9de648480000000000000000000000000000000611f3d565b50604051907f4a4f26f10000000000000000000000000000000000000000000000000000000082526004820152fd5b5050604051907f315da0680000000000000000000000000000000000000000000000000000000082526004820152fd5b837f4e487b710000000000000000000000000000000000000000000000000000000060005260116004526000fd5b857f4e487b710000000000000000000000000000000000000000000000000000000060005260116004526000fd5b346101635760007ffffffffffffffffffffffffffffffffffffffffffffffffffffffffffffffffc36011261016357606081019080821067ffffffffffffffff8311176111645761048791604052602481527f4379676e75732d4e6562756c613a204d657461537461626c6520425054204f7260208201527f61636c6500000000000000000000000000000000000000000000000000000000604082015260405191829160208352602083019061298f565b610100810190811067ffffffffffffffff82111761116457604052565b6040810190811067ffffffffffffffff82111761116457604052565b90601f7fffffffffffffffffffffffffffffffffffffffffffffffffffffffffffffffe0910116810190811067ffffffffffffffff82111761116457604052565b60005b83811061297f5750506000910152565b818101518382015260200161296f565b907fffffffffffffffffffffffffffffffffffffffffffffffffffffffffffffffe0601f6020936129cb8151809281875287808801910161296c565b0116010190565b6004359073ffffffffffffffffffffffffffffffffffffffff8216820361016357565b90815180825260208080930193019160005b828110612a15575050505090565b835185529381019392810192600101612a07565b90815180825260208080930193019160005b828110612a49575050505090565b835173ffffffffffffffffffffffffffffffffffffffff1685529381019392810192600101612a3b565b519069ffffffffffffffffffff8216820361016357565b81810292918115918404141715612a9d57565b7f4e487b7100000000000000000000000000000000000000000000000000000000600052601160045260246000fd5b60a073ffffffffffffffffffffffffffffffffffffffff916004604051809481937ffeaf968c000000000000000000000000000000000000000000000000000000008352165afa9081156113bf57600091612b3d575b506402540be40090818102918183041490151715612a9d5790565b9060a0823d8211612b84575b81612b5660a0938361292b565b81010312612b815750612b6881612a73565b50612b7a608060208301519201612a73565b5038612b22565b80fd5b3d9150612b49565b90600182811c92168015612bd5575b6020831014612ba657565b7f4e487b7100000000000000000000000000000000000000000000000000000000600052602260045260246000fd5b91607f1691612b9b565b9060405191828154918282526020928383019160005283600020936000905b828210612c1657505050612c149250038361292b565b565b855484526001958601958895509381019390910190612bfe565b8115612c3a570490565b7f4e487b7100000000000000000000000000000000000000000000000000000000600052601260045260246000fd5b60ff166012039060ff8211612a9d57565b60ff16604d8111612a9d57600a0a90565b7fffffffffffffffffffffffffffffffffffffffffffffffffffffffffffffffff8114612a9d5760010190565b80518210156111355760209160051b010190565b67ffffffffffffffff81116111645760051b60200190565b90612cee82612ccc565b612cfb604051918261292b565b8281527fffffffffffffffffffffffffffffffffffffffffffffffffffffffffffffffe0612d298294612ccc565b0190602036910137565b90816020910312610163575160ff811681036101635790565b3573ffffffffffffffffffffffffffffffffffffffff811681036101635790565b818110612d78575050565b60008155600101612d6d565b91818110612d9157505050565b612c149260005260206000209182019101612d6d565b73ffffffffffffffffffffffffffffffffffffffff600354163303612dc857565b60246040517f97fcc9e2000000000000000000000000000000000000000000000000000000008152336004820152fd5b670de0b6b3a7640000917fffffffffffffffffffffffffffffffffffffffffffffffffffffffffffffffff8383099280830292838086109503948086039514612ecd5782851015612e9657908291096001821901821680920460028082600302188083028203028083028203028083028203028083028203028083028203028092029003029360018380600003040190848311900302920304170290565b60448584604051917f773cc18c00000000000000000000000000000000000000000000000000000000835260048301526024820152fd5b505090612eda9250612c30565b90565b90917fffffffffffffffffffffffffffffffffffffffffffffffffffffffffffffffff8383099280830292838086109503948086039514612ecd5782851015612e9657908291096001821901821680920460028082600302188083028203028083028203028083028203028083028203028083028203028092029003029360018380600003040190848311900302920304170290565b90670de0b6b3a76400008083106130e8576000928181047001000000000000000000000000000000008110156130dd575b680100000000000000008110156130c8575b6401000000008110156130b3575b6201000081101561309e575b610100811015613089575b6010811015613074575b600481101561305f575b6002111561304d575b818402931c90808214613049576706f05b59d3b2000091825b61301a57505050565b808291020491671bc16d674ec8000083101561303b575b60011c9182613011565b809294019360011c91613031565b5050565b9260018101809111612a9d5792612ff8565b60021c9360028101809111612a9d5793612fef565b60041c9360048101809111612a9d5793612fe5565b60081c9360088101809111612a9d5793612fdb565b60101c9360108101809111612a9d5793612fd0565b60201c9360208101809111612a9d5793612fc4565b60401c9360408101809111612a9d5793612fb6565b60809450841c612fa4565b602483604051907fd88504dc0000000000000000000000000000000000000000000000000000000082526004820152fdfea26469706673582212202ba969c2c1af9d515b428c168afe2b1ebc0102201530ec28cfbe7499cff6ab2e64736f6c63430008110033",
  "linkReferences": {},
  "deployedLinkReferences": {}
}